{
  "_format": "hh-sol-artifact-1",
  "contractName": "Project",
  "sourceName": "contracts/Project.sol",
  "abi": [
    {
      "inputs": [
        {
          "internalType": "address",
          "name": "oracle",
          "type": "address"
        }
      ],
      "stateMutability": "payable",
      "type": "constructor"
    },
    {
      "inputs": [],
      "name": "EmptyArgs",
      "type": "error"
    },
    {
      "inputs": [],
      "name": "EmptySecrets",
      "type": "error"
    },
    {
      "inputs": [],
      "name": "EmptySource",
      "type": "error"
    },
    {
      "inputs": [],
      "name": "NoInlineSecrets",
      "type": "error"
    },
    {
      "inputs": [],
      "name": "RequestIsAlreadyPending",
      "type": "error"
    },
    {
      "inputs": [],
      "name": "RequestIsNotPending",
      "type": "error"
    },
    {
      "inputs": [],
      "name": "SenderIsNotRegistry",
      "type": "error"
    },
    {
      "anonymous": false,
      "inputs": [
        {
          "indexed": true,
          "internalType": "bytes32",
          "name": "requestId",
          "type": "bytes32"
        },
        {
          "indexed": false,
          "internalType": "bytes",
          "name": "result",
          "type": "bytes"
        },
        {
          "indexed": false,
          "internalType": "bytes",
          "name": "err",
          "type": "bytes"
        }
      ],
      "name": "OCRResponse",
      "type": "event"
    },
    {
      "anonymous": false,
      "inputs": [
        {
          "indexed": true,
          "internalType": "bytes32",
          "name": "id",
          "type": "bytes32"
        }
      ],
      "name": "RequestFulfilled",
      "type": "event"
    },
    {
      "anonymous": false,
      "inputs": [
        {
          "indexed": true,
          "internalType": "bytes32",
          "name": "id",
          "type": "bytes32"
        }
      ],
      "name": "RequestSent",
      "type": "event"
    },
    {
      "inputs": [
        {
          "internalType": "string",
          "name": "githubUsername",
          "type": "string"
        },
        {
          "internalType": "address",
          "name": "walletAddress",
          "type": "address"
        }
      ],
      "name": "applyBounty",
      "outputs": [],
      "stateMutability": "nonpayable",
      "type": "function"
    },
    {
      "inputs": [
        {
          "internalType": "uint256",
          "name": "",
          "type": "uint256"
        }
      ],
      "name": "bounties",
      "outputs": [
        {
          "internalType": "string",
          "name": "description",
          "type": "string"
        },
        {
          "internalType": "uint256",
          "name": "issueId",
          "type": "uint256"
        },
        {
          "internalType": "uint256",
          "name": "bountyAmount",
          "type": "uint256"
        },
        {
          "internalType": "string",
          "name": "repo",
          "type": "string"
        },
        {
          "internalType": "bool",
          "name": "complete",
          "type": "bool"
        },
        {
          "internalType": "string",
          "name": "username",
          "type": "string"
        }
      ],
      "stateMutability": "view",
      "type": "function"
    },
    {
      "inputs": [],
      "name": "bountiesCount",
      "outputs": [
        {
          "internalType": "uint256",
          "name": "",
          "type": "uint256"
        }
      ],
      "stateMutability": "view",
      "type": "function"
    },
    {
      "inputs": [
        {
          "internalType": "address",
          "name": "",
          "type": "address"
        }
      ],
      "name": "contributorUsernames",
      "outputs": [
        {
          "internalType": "string",
          "name": "",
          "type": "string"
        }
      ],
      "stateMutability": "view",
      "type": "function"
    },
    {
      "inputs": [
        {
          "internalType": "address",
          "name": "",
          "type": "address"
        }
      ],
      "name": "contributors",
      "outputs": [
        {
          "internalType": "bool",
          "name": "",
          "type": "bool"
        }
      ],
      "stateMutability": "view",
      "type": "function"
    },
    {
      "inputs": [
        {
          "internalType": "string",
          "name": "description",
          "type": "string"
        },
        {
          "internalType": "uint256",
          "name": "issueId",
          "type": "uint256"
        },
        {
          "internalType": "uint256",
          "name": "bountyAmount",
          "type": "uint256"
        },
        {
          "internalType": "string",
          "name": "repo",
          "type": "string"
        },
        {
          "internalType": "string",
          "name": "username",
          "type": "string"
        }
      ],
      "name": "createBounty",
      "outputs": [],
      "stateMutability": "payable",
      "type": "function"
    },
    {
      "inputs": [
        {
          "components": [
            {
              "internalType": "enum Functions.Location",
              "name": "codeLocation",
              "type": "uint8"
            },
            {
              "internalType": "enum Functions.Location",
              "name": "secretsLocation",
              "type": "uint8"
            },
            {
              "internalType": "enum Functions.CodeLanguage",
              "name": "language",
              "type": "uint8"
            },
            {
              "internalType": "string",
              "name": "source",
              "type": "string"
            },
            {
              "internalType": "bytes",
              "name": "secrets",
              "type": "bytes"
            },
            {
              "internalType": "string[]",
              "name": "args",
              "type": "string[]"
            }
          ],
          "internalType": "struct Functions.Request",
          "name": "req",
          "type": "tuple"
        },
        {
          "internalType": "uint64",
          "name": "subscriptionId",
          "type": "uint64"
        },
        {
          "internalType": "uint32",
          "name": "gasLimit",
          "type": "uint32"
        },
        {
          "internalType": "uint256",
          "name": "gasPrice",
          "type": "uint256"
        }
      ],
      "name": "estimateCost",
      "outputs": [
        {
          "internalType": "uint96",
          "name": "",
          "type": "uint96"
        }
      ],
      "stateMutability": "view",
      "type": "function"
    },
    {
      "inputs": [
        {
          "internalType": "string",
          "name": "source",
          "type": "string"
        },
        {
          "internalType": "bytes",
          "name": "secrets",
          "type": "bytes"
        },
        {
          "internalType": "string[]",
          "name": "args",
          "type": "string[]"
        },
        {
          "internalType": "uint64",
          "name": "subscriptionId",
          "type": "uint64"
        },
        {
          "internalType": "uint32",
          "name": "gasLimit",
          "type": "uint32"
        }
      ],
      "name": "executeRequest",
      "outputs": [
        {
          "internalType": "bytes32",
          "name": "",
          "type": "bytes32"
        }
      ],
      "stateMutability": "nonpayable",
      "type": "function"
    },
    {
      "inputs": [],
      "name": "getBountiesCount",
      "outputs": [
        {
          "internalType": "uint256",
          "name": "",
          "type": "uint256"
        }
      ],
      "stateMutability": "view",
      "type": "function"
    },
    {
      "inputs": [],
      "name": "getDONPublicKey",
      "outputs": [
        {
          "internalType": "bytes",
          "name": "",
          "type": "bytes"
        }
      ],
      "stateMutability": "view",
      "type": "function"
    },
    {
      "inputs": [
        {
          "internalType": "bytes32",
          "name": "requestId",
          "type": "bytes32"
        },
        {
          "internalType": "bytes",
          "name": "response",
          "type": "bytes"
        },
        {
          "internalType": "bytes",
          "name": "err",
          "type": "bytes"
        }
      ],
      "name": "handleOracleFulfillment",
      "outputs": [],
      "stateMutability": "nonpayable",
      "type": "function"
    },
    {
      "inputs": [],
      "name": "latestError",
      "outputs": [
        {
          "internalType": "bytes",
          "name": "",
          "type": "bytes"
        }
      ],
      "stateMutability": "view",
      "type": "function"
    },
    {
      "inputs": [],
      "name": "latestRequestId",
      "outputs": [
        {
          "internalType": "bytes32",
          "name": "",
          "type": "bytes32"
        }
      ],
      "stateMutability": "view",
      "type": "function"
    },
    {
      "inputs": [],
      "name": "latestResponse",
      "outputs": [
        {
          "internalType": "bytes",
          "name": "",
          "type": "bytes"
        }
      ],
      "stateMutability": "view",
      "type": "function"
    },
    {
      "inputs": [],
      "name": "maintainer",
      "outputs": [
        {
          "internalType": "address",
          "name": "",
          "type": "address"
        }
      ],
      "stateMutability": "view",
      "type": "function"
    },
    {
      "inputs": [
        {
          "internalType": "address",
          "name": "",
          "type": "address"
        }
      ],
      "name": "submittedContributors",
      "outputs": [
        {
          "internalType": "bool",
          "name": "",
          "type": "bool"
        }
      ],
      "stateMutability": "view",
      "type": "function"
    }
  ],
  "bytecode": "0x608060405260405161223f38038061223f83398101604081905261002291610055565b600080546001600160a01b0319166001600160a01b03831617905550600680546001600160a01b03191633179055610085565b60006020828403121561006757600080fd5b81516001600160a01b038116811461007e57600080fd5b9392505050565b6121ab806100946000396000f3fe6080604052600436106100f35760003560e01c80639850d32b1161008a578063d328a91e11610059578063d328a91e146102a7578063d4b39175146102bc578063dc2f8744146102f9578063fffeb84e1461032b57600080fd5b80639850d32b14610217578063b616b1831461024f578063be10c6e114610262578063bef3a2f01461029257600080fd5b80631aa46f59116100c65780631aa46f59146101815780631f6d49421461019757806327714589146101d75780635f1536bf146101f757600080fd5b806301bfaae0146100f85780630afaf69d1461011c5780630ca761751461014957806313b32e971461016b575b600080fd5b34801561010457600080fd5b506005545b6040519081526020015b60405180910390f35b34801561012857600080fd5b5061013c6101373660046118e5565b610340565b6040516101139190611d71565b34801561015557600080fd5b50610169610164366004611938565b6103da565b005b34801561017757600080fd5b50610109600a5481565b34801561018d57600080fd5b5061010960025481565b3480156101a357600080fd5b506101c76101b23660046118e5565b60086020526000908152604090205460ff1681565b6040519015158152602001610113565b3480156101e357600080fd5b506101096101f2366004611a13565b61048d565b34801561020357600080fd5b50610169610212366004611afe565b610593565b34801561022357600080fd5b50600654610237906001600160a01b031681565b6040516001600160a01b039091168152602001610113565b61016961025d366004611b50565b6106fc565b34801561026e57600080fd5b506101c761027d3660046118e5565b60096020526000908152604090205460ff1681565b34801561029e57600080fd5b5061013c6108c8565b3480156102b357600080fd5b5061013c6108d5565b3480156102c857600080fd5b506102dc6102d7366004611bec565b610973565b6040516bffffffffffffffffffffffff9091168152602001610113565b34801561030557600080fd5b50610319610314366004611cfe565b610a09565b60405161011396959493929190611da9565b34801561033757600080fd5b5061013c610bf6565b6007602052600090815260409020805461035990612093565b80601f016020809104026020016040519081016040528092919081815260200182805461038590612093565b80156103d25780601f106103a7576101008083540402835291602001916103d2565b820191906000526020600020905b8154815290600101906020018083116103b557829003601f168201915b505050505081565b60008381526001602052604090205483906001600160a01b0316331461042c576040517fa0c5ec6300000000000000000000000000000000000000000000000000000000815260040160405180910390fd5b600081815260016020526040808220805473ffffffffffffffffffffffffffffffffffffffff191690555182917f85e1543bf2f84fe80c6badbce3648c8539ad1df4d2b3d822938ca0538be727e691a2610487848484610c03565b50505050565b60006104c96040805160c08101909152806000815260200160008152602001600081526020016060815260200160608152602001606081525090565b6105106000808c8c8080601f01602080910402602001604051908101604052809392919081815260200183838082843760009201919091525087959493925050610cc69050565b86156105585761055888888080601f0160208091040260200160405190810160405280939291908181526020018383808284376000920191909152508593925050610d5a9050565b84156105725761057261056b8688612033565b8290610da1565b600061057f828686610de1565b60028190559b9a5050505050505050505050565b3360009081526008602052604090205460ff161561061e5760405162461bcd60e51b815260206004820152602760248201527f596f75206861766520616c7265616479206170706c69656420746f207468697360448201527f20626f756e74790000000000000000000000000000000000000000000000000060648201526084015b60405180910390fd5b6001600160a01b0381166106745760405162461bcd60e51b815260206004820152601a60248201527f57616c6c657420616464726573732069732072657175697265640000000000006044820152606401610615565b60008251116106c55760405162461bcd60e51b815260206004820152601b60248201527f47697448756220757365726e616d6520697320726571756972656400000000006044820152606401610615565b336000908152600860209081526040808320805460ff191660011790556007825290912083516106f79285019061167d565b505050565b6006546001600160a01b031633146107565760405162461bcd60e51b815260206004820152601860248201527f5265737472696374656420746f206d61696e7461696e657200000000000000006044820152606401610615565b823410156107cc5760405162461bcd60e51b815260206004820152603160248201527f5061796d656e7420616d6f756e74206d75737420626520657175616c20746f2060448201527f74686520626f756e747920616d6f756e740000000000000000000000000000006064820152608401610615565b6040805160c08101825286815260208082018790529181018590526060810184905260006080820181905260a08201849052600580546001810182559152815180519293849360069093027f036b6384b5eca791c62761152d0c79bb0604c104a5fb6f4eb0703f3154bb3db00192610847928492019061167d565b5060208281015160018301556040830151600283015560608301518051610874926003850192019061167d565b50608082015160048201805460ff191691151591909117905560a082015180516108a891600584019160209091019061167d565b5050600a8054915060006108bb836120c8565b9190505550505050505050565b6003805461035990612093565b60008054604080517fd328a91e00000000000000000000000000000000000000000000000000000000815290516060936001600160a01b039093169263d328a91e9260048082019391829003018186803b15801561093257600080fd5b505afa158015610946573d6000803e3d6000fd5b505050506040513d6000823e601f3d908101601f1916820160405261096e91908101906119a5565b905090565b600080546001600160a01b031663d227d2458561098f88610f60565b86866040518563ffffffff1660e01b81526004016109b09493929190611e3c565b60206040518083038186803b1580156109c857600080fd5b505afa1580156109dc573d6000803e3d6000fd5b505050506040513d601f19601f82011682018060405250810190610a009190611d17565b95945050505050565b60058181548110610a1957600080fd5b9060005260206000209060060201600091509050806000018054610a3c90612093565b80601f0160208091040260200160405190810160405280929190818152602001828054610a6890612093565b8015610ab55780601f10610a8a57610100808354040283529160200191610ab5565b820191906000526020600020905b815481529060010190602001808311610a9857829003601f168201915b505050505090806001015490806002015490806003018054610ad690612093565b80601f0160208091040260200160405190810160405280929190818152602001828054610b0290612093565b8015610b4f5780601f10610b2457610100808354040283529160200191610b4f565b820191906000526020600020905b815481529060010190602001808311610b3257829003601f168201915b5050506004840154600585018054949560ff909216949193509150610b7390612093565b80601f0160208091040260200160405190810160405280929190818152602001828054610b9f90612093565b8015610bec5780601f10610bc157610100808354040283529160200191610bec565b820191906000526020600020905b815481529060010190602001808311610bcf57829003601f168201915b5050505050905086565b6004805461035990612093565b8151610c1690600390602085019061167d565b508051610c2a90600490602084019061167d565b50827f7bab0ec163b5c132c72b8146ac4d6e067e82ed58f8b131150aa71c92589115628383604051610c5d929190611d84565b60405180910390a2610c6e82612040565b60011415610c7e57600554610487565b60405162461bcd60e51b815260206004820152601560248201527f4e6f20636f6e747269627574696f6e20666f756e6400000000000000000000006044820152606401610615565b8051610cfe576040517f22ce3edd00000000000000000000000000000000000000000000000000000000815260040160405180910390fd5b83836001811115610d1157610d1161211b565b90816001811115610d2457610d2461211b565b90525060408401828015610d3a57610d3a61211b565b90818015610d4a57610d4a61211b565b9052506060909301929092525050565b8051610d92576040517fe889636f00000000000000000000000000000000000000000000000000000000815260040160405180910390fd5b60016020830152608090910152565b8051610dd9576040517ffe936cb700000000000000000000000000000000000000000000000000000000815260040160405180910390fd5b60a090910152565b6000805481906001600160a01b03166328242b0485610dff88610f60565b866040518463ffffffff1660e01b8152600401610e1e93929190611e03565b602060405180830381600087803b158015610e3857600080fd5b505af1158015610e4c573d6000803e3d6000fd5b505050506040513d601f19601f82011682018060405250810190610e70919061191f565b905060008054906101000a90046001600160a01b03166001600160a01b0316635ab1bd536040518163ffffffff1660e01b815260040160206040518083038186803b158015610ebe57600080fd5b505afa158015610ed2573d6000803e3d6000fd5b505050506040513d601f19601f82011682018060405250810190610ef69190611902565b600082815260016020526040808220805473ffffffffffffffffffffffffffffffffffffffff19166001600160a01b039490941693909317909255905182917f1131472297a800fee664d1d89cfa8f7676ff07189ecc53f80bbb5f4969099db891a2949350505050565b6060610f6a611701565b8051610f789061010061122c565b50610fb8816040518060400160405280600c81526020017f636f64654c6f636174696f6e00000000000000000000000000000000000000008152506112a6565b610fd78184600001516001811115610fd257610fd261211b565b6112bf565b611016816040518060400160405280600881526020017f6c616e67756167650000000000000000000000000000000000000000000000008152506112a6565b6110308184604001516000811115610fd257610fd261211b565b61106f816040518060400160405280600681526020017f736f7572636500000000000000000000000000000000000000000000000000008152506112a6565b61107d8184606001516112a6565b60a08301515115611123576110c7816040518060400160405280600481526020017f61726773000000000000000000000000000000000000000000000000000000008152506112a6565b6110d0816112fc565b60005b8360a001515181101561111957611107828560a0015183815181106110fa576110fa612131565b60200260200101516112a6565b80611111816120c8565b9150506110d3565b5061112381611320565b60808301515115611224576000836020015160018111156111465761114661211b565b141561117e576040517fa80d31f700000000000000000000000000000000000000000000000000000000815260040160405180910390fd5b6111bd816040518060400160405280600f81526020017f736563726574734c6f636174696f6e00000000000000000000000000000000008152506112a6565b6111d78184602001516001811115610fd257610fd261211b565b611216816040518060400160405280600781526020017f73656372657473000000000000000000000000000000000000000000000000008152506112a6565b61122481846080015161133e565b515192915050565b60408051808201909152606081526000602082015261124c6020836120e3565b156112745761125c6020836120e3565b61126790602061201c565b6112719083611efa565b91505b60208084018390526040518085526000815290818401018181101561129857600080fd5b604052508290505b92915050565b6112b38260038351611347565b81516106f79082611468565b81516112cc9060c2611490565b506112f882826040516020016112e491815260200190565b60405160208183030381529060405261133e565b5050565b6113078160046114f9565b60018160200181815161131a9190611efa565b90525050565b61132b8160076114f9565b60018160200181815161131a919061201c565b6112b382600283515b60178167ffffffffffffffff161161136e5782516104879060e0600585901b168317611490565b60ff8167ffffffffffffffff16116113b0578251611397906018611fe0600586901b1617611490565b5082516104879067ffffffffffffffff83166001611510565b61ffff8167ffffffffffffffff16116113f35782516113da906019611fe0600586901b1617611490565b5082516104879067ffffffffffffffff83166002611510565b63ffffffff8167ffffffffffffffff161161143857825161141f90601a611fe0600586901b1617611490565b5082516104879067ffffffffffffffff83166004611510565b825161144f90601b611fe0600586901b1617611490565b5082516104879067ffffffffffffffff83166008611510565b60408051808201909152606081526000602082015261148983838451611595565b9392505050565b60408051808201909152606081526000602082015282515160006114b5826001611efa565b9050846020015182106114d6576114d6856114d1836002611ffd565b611666565b84516020838201018581535080518211156114ef578181525b5093949350505050565b81516106f790601f611fe0600585901b1617611490565b60408051808201909152606081526000602082015283515160006115348285611efa565b9050856020015181111561155157611551866114d1836002611ffd565b6000600161156186610100611f55565b61156b919061201c565b90508651828101878319825116178152508051831115611589578281525b50959695505050505050565b60408051808201909152606081526000602082015282518211156115b857600080fd5b83515160006115c78483611efa565b905085602001518111156115e4576115e4866114d1836002611ffd565b8551805183820160200191600091808511156115fe578482525b505050602086015b6020861061163e578051825261161d602083611efa565b915061162a602082611efa565b905061163760208761201c565b9550611606565b51815160001960208890036101000a0190811690199190911617905250849150509392505050565b8151611672838361122c565b506104878382611468565b82805461168990612093565b90600052602060002090601f0160209004810192826116ab57600085556116f1565b82601f106116c457805160ff19168380011785556116f1565b828001600101855582156116f1579182015b828111156116f15782518255916020019190600101906116d6565b506116fd929150611736565b5090565b6040518060400160405280611729604051806040016040528060608152602001600081525090565b8152602001600081525090565b5b808211156116fd5760008155600101611737565b600067ffffffffffffffff8084111561176657611766612147565b8360051b6020611777818301611ea1565b86815293508084018583810189101561178f57600080fd5b60009350835b888110156117ca578135868111156117ab578586fd5b6117b78b828b01611840565b8452509183019190830190600101611795565b5050505050509392505050565b600082601f8301126117e857600080fd5b6114898383356020850161174b565b60008083601f84011261180957600080fd5b50813567ffffffffffffffff81111561182157600080fd5b60208301915083602082850101111561183957600080fd5b9250929050565b600082601f83011261185157600080fd5b813561186461185f82611ed2565b611ea1565b81815284602083860101111561187957600080fd5b816020850160208301376000918101602001919091529392505050565b8035600181106118a557600080fd5b919050565b8035600281106118a557600080fd5b803563ffffffff811681146118a557600080fd5b803567ffffffffffffffff811681146118a557600080fd5b6000602082840312156118f757600080fd5b81356114898161215d565b60006020828403121561191457600080fd5b81516114898161215d565b60006020828403121561193157600080fd5b5051919050565b60008060006060848603121561194d57600080fd5b83359250602084013567ffffffffffffffff8082111561196c57600080fd5b61197887838801611840565b9350604086013591508082111561198e57600080fd5b5061199b86828701611840565b9150509250925092565b6000602082840312156119b757600080fd5b815167ffffffffffffffff8111156119ce57600080fd5b8201601f810184136119df57600080fd5b80516119ed61185f82611ed2565b818152856020838501011115611a0257600080fd5b610a00826020830160208601612067565b60008060008060008060008060a0898b031215611a2f57600080fd5b883567ffffffffffffffff80821115611a4757600080fd5b611a538c838d016117f7565b909a50985060208b0135915080821115611a6c57600080fd5b611a788c838d016117f7565b909850965060408b0135915080821115611a9157600080fd5b818b0191508b601f830112611aa557600080fd5b813581811115611ab457600080fd5b8c60208260051b8501011115611ac957600080fd5b602083019650809550505050611ae160608a016118cd565b9150611aef60808a016118b9565b90509295985092959890939650565b60008060408385031215611b1157600080fd5b823567ffffffffffffffff811115611b2857600080fd5b611b3485828601611840565b9250506020830135611b458161215d565b809150509250929050565b600080600080600060a08688031215611b6857600080fd5b853567ffffffffffffffff80821115611b8057600080fd5b611b8c89838a01611840565b965060208801359550604088013594506060880135915080821115611bb057600080fd5b611bbc89838a01611840565b93506080880135915080821115611bd257600080fd5b50611bdf88828901611840565b9150509295509295909350565b60008060008060808587031215611c0257600080fd5b843567ffffffffffffffff80821115611c1a57600080fd5b9086019060c08289031215611c2e57600080fd5b611c36611e78565b611c3f836118aa565b8152611c4d602084016118aa565b6020820152611c5e60408401611896565b6040820152606083013582811115611c7557600080fd5b611c818a828601611840565b606083015250608083013582811115611c9957600080fd5b611ca58a828601611840565b60808301525060a083013582811115611cbd57600080fd5b611cc98a8286016117d7565b60a0830152509550611ce0915050602086016118cd565b9250611cee604086016118b9565b9396929550929360600135925050565b600060208284031215611d1057600080fd5b5035919050565b600060208284031215611d2957600080fd5b81516bffffffffffffffffffffffff8116811461148957600080fd5b60008151808452611d5d816020860160208601612067565b601f01601f19169290920160200192915050565b6020815260006114896020830184611d45565b604081526000611d976040830185611d45565b8281036020840152610a008185611d45565b60c081526000611dbc60c0830189611d45565b8760208401528660408401528281036060840152611dda8187611d45565b9050841515608084015282810360a0840152611df68185611d45565b9998505050505050505050565b67ffffffffffffffff84168152606060208201526000611e266060830185611d45565b905063ffffffff83166040830152949350505050565b67ffffffffffffffff85168152608060208201526000611e5f6080830186611d45565b63ffffffff949094166040830152506060015292915050565b60405160c0810167ffffffffffffffff81118282101715611e9b57611e9b612147565b60405290565b604051601f8201601f1916810167ffffffffffffffff81118282101715611eca57611eca612147565b604052919050565b600067ffffffffffffffff821115611eec57611eec612147565b50601f01601f191660200190565b60008219821115611f0d57611f0d612105565b500190565b600181815b80851115611f4d578160001904821115611f3357611f33612105565b80851615611f4057918102915b93841c9390800290611f17565b509250929050565b60006114898383600082611f6b575060016112a0565b81611f78575060006112a0565b8160018114611f8e5760028114611f9857611fb4565b60019150506112a0565b60ff841115611fa957611fa9612105565b50506001821b6112a0565b5060208310610133831016604e8410600b8410161715611fd7575081810a6112a0565b611fe18383611f12565b8060001904821115611ff557611ff5612105565b029392505050565b600081600019048311821515161561201757612017612105565b500290565b60008282101561202e5761202e612105565b500390565b600061148936848461174b565b80516020808301519190811015612061576000198160200360031b1b821691505b50919050565b60005b8381101561208257818101518382015260200161206a565b838111156104875750506000910152565b600181811c908216806120a757607f821691505b6020821081141561206157634e487b7160e01b600052602260045260246000fd5b60006000198214156120dc576120dc612105565b5060010190565b60008261210057634e487b7160e01b600052601260045260246000fd5b500690565b634e487b7160e01b600052601160045260246000fd5b634e487b7160e01b600052602160045260246000fd5b634e487b7160e01b600052603260045260246000fd5b634e487b7160e01b600052604160045260246000fd5b6001600160a01b038116811461217257600080fd5b5056fea264697066735822122007b991b56fb57eeb06c76db2e49c1dd55c71ff573c6947a0d6a6800c21cf6f6564736f6c63430008070033",
  "linkReferences": {},
  "deployedLinkReferences": {}
}