{"contracts/ParametricInsurance.sol":{"ParametricInsurance":{"abi":[{"inputs":[{"internalType":"address","name":"oracle","type":"address"},{"internalType":"address","name":"_client","type":"address"}],"stateMutability":"payable","type":"constructor"},{"inputs":[],"name":"EmptyArgs","type":"error"},{"inputs":[],"name":"EmptySecrets","type":"error"},{"inputs":[],"name":"EmptySource","type":"error"},{"inputs":[],"name":"NoInlineSecrets","type":"error"},{"inputs":[],"name":"RequestIsAlreadyPending","type":"error"},{"inputs":[],"name":"RequestIsNotPending","type":"error"},{"inputs":[],"name":"SenderIsNotRegistry","type":"error"},{"anonymous":false,"inputs":[{"indexed":true,"internalType":"bytes32","name":"requestId","type":"bytes32"},{"indexed":false,"internalType":"bytes","name":"result","type":"bytes"},{"indexed":false,"internalType":"bytes","name":"err","type":"bytes"}],"name":"OCRResponse","type":"event"},{"anonymous":false,"inputs":[{"indexed":true,"internalType":"bytes32","name":"id","type":"bytes32"}],"name":"RequestFulfilled","type":"event"},{"anonymous":false,"inputs":[{"indexed":true,"internalType":"bytes32","name":"id","type":"bytes32"}],"name":"RequestSent","type":"event"},{"inputs":[],"name":"COLD_DAYS_THRESHOLD","outputs":[{"internalType":"uint256","name":"","type":"uint256"}],"stateMutability":"view","type":"function"},{"inputs":[],"name":"DAY_IN_SECONDS","outputs":[{"internalType":"uint256","name":"","type":"uint256"}],"stateMutability":"view","type":"function"},{"inputs":[],"name":"client","outputs":[{"internalType":"address","name":"","type":"address"}],"stateMutability":"view","type":"function"},{"inputs":[],"name":"coldTemp","outputs":[{"internalType":"uint256","name":"","type":"uint256"}],"stateMutability":"view","type":"function"},{"inputs":[],"name":"consecutiveColdDays","outputs":[{"internalType":"uint256","name":"","type":"uint256"}],"stateMutability":"view","type":"function"},{"inputs":[],"name":"contractActive","outputs":[{"internalType":"bool","name":"","type":"bool"}],"stateMutability":"view","type":"function"},{"inputs":[],"name":"currentTempDateChecked","outputs":[{"internalType":"uint256","name":"","type":"uint256"}],"stateMutability":"view","type":"function"},{"inputs":[],"name":"currentTemperature","outputs":[{"internalType":"uint256","name":"","type":"uint256"}],"stateMutability":"view","type":"function"},{"inputs":[{"components":[{"internalType":"enum Functions.Location","name":"codeLocation","type":"uint8"},{"internalType":"enum Functions.Location","name":"secretsLocation","type":"uint8"},{"internalType":"enum Functions.CodeLanguage","name":"language","type":"uint8"},{"internalType":"string","name":"source","type":"string"},{"internalType":"bytes","name":"secrets","type":"bytes"},{"internalType":"string[]","name":"args","type":"string[]"}],"internalType":"struct Functions.Request","name":"req","type":"tuple"},{"internalType":"uint64","name":"subscriptionId","type":"uint64"},{"internalType":"uint32","name":"gasLimit","type":"uint32"},{"internalType":"uint256","name":"gasPrice","type":"uint256"}],"name":"estimateCost","outputs":[{"internalType":"uint96","name":"","type":"uint96"}],"stateMutability":"view","type":"function"},{"inputs":[{"internalType":"string","name":"source","type":"string"},{"internalType":"bytes","name":"secrets","type":"bytes"},{"internalType":"string[]","name":"args","type":"string[]"},{"internalType":"uint64","name":"subscriptionId","type":"uint64"},{"internalType":"uint32","name":"gasLimit","type":"uint32"}],"name":"executeRequest","outputs":[{"internalType":"bytes32","name":"","type":"bytes32"}],"stateMutability":"nonpayable","type":"function"},{"inputs":[],"name":"getDONPublicKey","outputs":[{"internalType":"bytes","name":"","type":"bytes"}],"stateMutability":"view","type":"function"},{"inputs":[{"internalType":"bytes32","name":"requestId","type":"bytes32"},{"internalType":"bytes","name":"response","type":"bytes"},{"internalType":"bytes","name":"err","type":"bytes"}],"name":"handleOracleFulfillment","outputs":[],"stateMutability":"nonpayable","type":"function"},{"inputs":[],"name":"insurer","outputs":[{"internalType":"address","name":"","type":"address"}],"stateMutability":"view","type":"function"},{"inputs":[],"name":"latestError","outputs":[{"internalType":"bytes","name":"","type":"bytes"}],"stateMutability":"view","type":"function"},{"inputs":[],"name":"latestRequestId","outputs":[{"internalType":"bytes32","name":"","type":"bytes32"}],"stateMutability":"view","type":"function"},{"inputs":[],"name":"latestResponse","outputs":[{"internalType":"bytes","name":"","type":"bytes"}],"stateMutability":"view","type":"function"},{"inputs":[],"name":"shouldPayClient","outputs":[{"internalType":"bool","name":"","type":"bool"}],"stateMutability":"view","type":"function"},{"stateMutability":"payable","type":"receive"}],"evm":{"bytecode":{"linkReferences":{},"object":"60a06040526000600655603c60075560405162001df038038062001df08339810160408190526200003091620000b0565b600080546001600160a01b0319166001600160a01b0384161790556005805460609290921b6001600160601b03191660805242600955600160a01b6001600160b01b03199092163361ffff60a01b191617919091179055506000600855620000e8565b80516001600160a01b0381168114620000ab57600080fd5b919050565b60008060408385031215620000c457600080fd5b620000cf8362000093565b9150620000df6020840162000093565b90509250929050565b60805160601c611ce26200010e6000396000818161017b0152610e190152611ce26000f3fe6080604052600436106101125760003560e01c806384836d91116100a5578063d328a91e11610074578063dbc837c511610059578063dbc837c5146102fc578063e289fcb61461031c578063fffeb84e1461033d57600080fd5b8063d328a91e146102aa578063d4b39175146102bf57600080fd5b806384836d91146102475780639d000ecc1461025c578063bef3a2f014610272578063cf990eb31461029457600080fd5b806327714589116100e157806327714589146101cb578063456f3d0e146101eb5780635fdc6281146102015780636c3ee3011461021657600080fd5b8063058f3c0b1461011e5780630ca7617514610147578063109e94cf146101695780631aa46f59146101b557600080fd5b3661011957005b600080fd5b34801561012a57600080fd5b5061013460065481565b6040519081526020015b60405180910390f35b34801561015357600080fd5b506101676101623660046115e8565b610352565b005b34801561017557600080fd5b5061019d7f000000000000000000000000000000000000000000000000000000000000000081565b6040516001600160a01b03909116815260200161013e565b3480156101c157600080fd5b5061013460025481565b3480156101d757600080fd5b506101346101e63660046116c3565b610405565b3480156101f757600080fd5b5061013460075481565b34801561020d57600080fd5b50610134603c81565b34801561022257600080fd5b5060055461023790600160a81b900460ff1681565b604051901515815260200161013e565b34801561025357600080fd5b50610134600381565b34801561026857600080fd5b5061013460095481565b34801561027e57600080fd5b506102876105cb565b60405161013e919061191a565b3480156102a057600080fd5b5061013460085481565b3480156102b657600080fd5b50610287610659565b3480156102cb57600080fd5b506102df6102da3660046117ae565b6106f7565b6040516bffffffffffffffffffffffff909116815260200161013e565b34801561030857600080fd5b5060055461019d906001600160a01b031681565b34801561032857600080fd5b5060055461023790600160a01b900460ff1681565b34801561034957600080fd5b5061028761078d565b60008381526001602052604090205483906001600160a01b031633146103a4576040517fa0c5ec6300000000000000000000000000000000000000000000000000000000815260040160405180910390fd5b600081815260016020526040808220805473ffffffffffffffffffffffffffffffffffffffff191690555182917f85e1543bf2f84fe80c6badbce3648c8539ad1df4d2b3d822938ca0538be727e691a26103ff84848461079a565b50505050565b6000603c600954426104179190611b6b565b116104695760405162461bcd60e51b815260206004820152601160248201527f4f6e6520636865636b207065722064617900000000000000000000000000000060448201526064015b60405180910390fd5b600554600160a01b900460ff1615156001146104c75760405162461bcd60e51b815260206004820152601260248201527f436f6e74726163742068617320656e64656400000000000000000000000000006044820152606401610460565b6105016040805160c08101909152806000815260200160008152602001600081526020016060815260200160608152602001606081525090565b6105486000808c8c8080601f016020809104026020016040519081016040528093929190818152602001838380828437600092019190915250879594939250506108519050565b86156105905761059088888080601f01602080910402602001604051908101604052809392919081815260200183838082843760009201919091525085939250506108e59050565b84156105aa576105aa6105a38688611b82565b829061092c565b60006105b782868661096c565b60028190559b9a5050505050505050505050565b600380546105d890611be2565b80601f016020809104026020016040519081016040528092919081815260200182805461060490611be2565b80156106515780601f1061062657610100808354040283529160200191610651565b820191906000526020600020905b81548152906001019060200180831161063457829003601f168201915b505050505081565b60008054604080517fd328a91e00000000000000000000000000000000000000000000000000000000815290516060936001600160a01b039093169263d328a91e9260048082019391829003018186803b1580156106b657600080fd5b505afa1580156106ca573d6000803e3d6000fd5b505050506040513d6000823e601f3d908101601f191682016040526106f29190810190611655565b905090565b600080546001600160a01b031663d227d2458561071388610aeb565b86866040518563ffffffff1660e01b8152600401610734949392919061198b565b60206040518083038186803b15801561074c57600080fd5b505afa158015610760573d6000803e3d6000fd5b505050506040513d601f19601f8201168201806040525081019061078491906118c0565b95945050505050565b600480546105d890611be2565b81516107ad90600390602085019061133e565b5080516107c190600490602084019061133e565b50827f7bab0ec163b5c132c72b8146ac4d6e067e82ed58f8b131150aa71c925891156283836040516107f492919061192d565b60405180910390a24260095561080982611b8f565b6008819055600754101561082157600060065561083a565b6001600660008282546108349190611a49565b90915550505b60036006541061084c5761084c610db7565b505050565b8051610889576040517f22ce3edd00000000000000000000000000000000000000000000000000000000815260040160405180910390fd5b8383600181111561089c5761089c611c6a565b908160018111156108af576108af611c6a565b905250604084018280156108c5576108c5611c6a565b908180156108d5576108d5611c6a565b9052506060909301929092525050565b805161091d576040517fe889636f00000000000000000000000000000000000000000000000000000000815260040160405180910390fd5b60016020830152608090910152565b8051610964576040517ffe936cb700000000000000000000000000000000000000000000000000000000815260040160405180910390fd5b60a090910152565b6000805481906001600160a01b03166328242b048561098a88610aeb565b866040518463ffffffff1660e01b81526004016109a993929190611952565b602060405180830381600087803b1580156109c357600080fd5b505af11580156109d7573d6000803e3d6000fd5b505050506040513d601f19601f820116820180604052508101906109fb91906115cf565b905060008054906101000a90046001600160a01b03166001600160a01b0316635ab1bd536040518163ffffffff1660e01b815260040160206040518083038186803b158015610a4957600080fd5b505afa158015610a5d573d6000803e3d6000fd5b505050506040513d601f19601f82011682018060405250810190610a8191906115a6565b600082815260016020526040808220805473ffffffffffffffffffffffffffffffffffffffff19166001600160a01b039490941693909317909255905182917f1131472297a800fee664d1d89cfa8f7676ff07189ecc53f80bbb5f4969099db891a2949350505050565b6060610af56113c2565b8051610b0390610100610eed565b50610b43816040518060400160405280600c81526020017f636f64654c6f636174696f6e0000000000000000000000000000000000000000815250610f67565b610b628184600001516001811115610b5d57610b5d611c6a565b610f80565b610ba1816040518060400160405280600881526020017f6c616e6775616765000000000000000000000000000000000000000000000000815250610f67565b610bbb8184604001516000811115610b5d57610b5d611c6a565b610bfa816040518060400160405280600681526020017f736f757263650000000000000000000000000000000000000000000000000000815250610f67565b610c08818460600151610f67565b60a08301515115610cae57610c52816040518060400160405280600481526020017f6172677300000000000000000000000000000000000000000000000000000000815250610f67565b610c5b81610fbd565b60005b8360a0015151811015610ca457610c92828560a001518381518110610c8557610c85611c80565b6020026020010151610f67565b80610c9c81611c17565b915050610c5e565b50610cae81610fe1565b60808301515115610daf57600083602001516001811115610cd157610cd1611c6a565b1415610d09576040517fa80d31f700000000000000000000000000000000000000000000000000000000815260040160405180910390fd5b610d48816040518060400160405280600f81526020017f736563726574734c6f636174696f6e0000000000000000000000000000000000815250610f67565b610d628184602001516001811115610b5d57610b5d611c6a565b610da1816040518060400160405280600781526020017f7365637265747300000000000000000000000000000000000000000000000000815250610f67565b610daf818460800151610fff565b515192915050565b600554600160a01b900460ff161515600114610e155760405162461bcd60e51b815260206004820152601260248201527f436f6e74726163742068617320656e64656400000000000000000000000000006044820152606401610460565b60007f00000000000000000000000000000000000000000000000000000000000000006001600160a01b03164760405160006040518083038185875af1925050503d8060008114610e82576040519150601f19603f3d011682016040523d82523d6000602084013e610e87565b606091505b5050600580547fffffffffffffffffffff0000ffffffffffffffffffffffffffffffffffffffff16600160a01b92159283027fffffffffffffffffffff00ffffffffffffffffffffffffffffffffffffffffff16179115600160a81b0291909117905550565b604080518082019091526060815260006020820152610f0d602083611c32565b15610f3557610f1d602083611c32565b610f28906020611b6b565b610f329083611a49565b91505b602080840183905260405180855260008152908184010181811015610f5957600080fd5b604052508290505b92915050565b610f748260038351611008565b815161084c9082611129565b8151610f8d9060c2611151565b50610fb98282604051602001610fa591815260200190565b604051602081830303815290604052610fff565b5050565b610fc88160046111ba565b600181602001818151610fdb9190611a49565b90525050565b610fec8160076111ba565b600181602001818151610fdb9190611b6b565b610f7482600283515b60178167ffffffffffffffff161161102f5782516103ff9060e0600585901b168317611151565b60ff8167ffffffffffffffff1611611071578251611058906018611fe0600586901b1617611151565b5082516103ff9067ffffffffffffffff831660016111d1565b61ffff8167ffffffffffffffff16116110b457825161109b906019611fe0600586901b1617611151565b5082516103ff9067ffffffffffffffff831660026111d1565b63ffffffff8167ffffffffffffffff16116110f95782516110e090601a611fe0600586901b1617611151565b5082516103ff9067ffffffffffffffff831660046111d1565b825161111090601b611fe0600586901b1617611151565b5082516103ff9067ffffffffffffffff831660086111d1565b60408051808201909152606081526000602082015261114a83838451611256565b9392505050565b6040805180820190915260608152600060208201528251516000611176826001611a49565b9050846020015182106111975761119785611192836002611b4c565b611327565b84516020838201018581535080518211156111b0578181525b5093949350505050565b815161084c90601f611fe0600585901b1617611151565b60408051808201909152606081526000602082015283515160006111f58285611a49565b905085602001518111156112125761121286611192836002611b4c565b6000600161122286610100611aa4565b61122c9190611b6b565b9050865182810187831982511617815250805183111561124a578281525b50959695505050505050565b604080518082019091526060815260006020820152825182111561127957600080fd5b83515160006112888483611a49565b905085602001518111156112a5576112a586611192836002611b4c565b8551805183820160200191600091808511156112bf578482525b505050602086015b602086106112ff57805182526112de602083611a49565b91506112eb602082611a49565b90506112f8602087611b6b565b95506112c7565b51815160001960208890036101000a0190811690199190911617905250849150509392505050565b81516113338383610eed565b506103ff8382611129565b82805461134a90611be2565b90600052602060002090601f01602090048101928261136c57600085556113b2565b82601f1061138557805160ff19168380011785556113b2565b828001600101855582156113b2579182015b828111156113b2578251825591602001919060010190611397565b506113be9291506113f7565b5090565b60405180604001604052806113ea604051806040016040528060608152602001600081525090565b8152602001600081525090565b5b808211156113be57600081556001016113f8565b600067ffffffffffffffff8084111561142757611427611c96565b8360051b60206114388183016119f0565b86815293508084018583810189101561145057600080fd5b60009350835b8881101561148b5781358681111561146c578586fd5b6114788b828b01611501565b8452509183019190830190600101611456565b5050505050509392505050565b600082601f8301126114a957600080fd5b61114a8383356020850161140c565b60008083601f8401126114ca57600080fd5b50813567ffffffffffffffff8111156114e257600080fd5b6020830191508360208285010111156114fa57600080fd5b9250929050565b600082601f83011261151257600080fd5b813561152561152082611a21565b6119f0565b81815284602083860101111561153a57600080fd5b816020850160208301376000918101602001919091529392505050565b80356001811061156657600080fd5b919050565b80356002811061156657600080fd5b803563ffffffff8116811461156657600080fd5b803567ffffffffffffffff8116811461156657600080fd5b6000602082840312156115b857600080fd5b81516001600160a01b038116811461114a57600080fd5b6000602082840312156115e157600080fd5b5051919050565b6000806000606084860312156115fd57600080fd5b83359250602084013567ffffffffffffffff8082111561161c57600080fd5b61162887838801611501565b9350604086013591508082111561163e57600080fd5b5061164b86828701611501565b9150509250925092565b60006020828403121561166757600080fd5b815167ffffffffffffffff81111561167e57600080fd5b8201601f8101841361168f57600080fd5b805161169d61152082611a21565b8181528560208385010111156116b257600080fd5b610784826020830160208601611bb6565b60008060008060008060008060a0898b0312156116df57600080fd5b883567ffffffffffffffff808211156116f757600080fd5b6117038c838d016114b8565b909a50985060208b013591508082111561171c57600080fd5b6117288c838d016114b8565b909850965060408b013591508082111561174157600080fd5b818b0191508b601f83011261175557600080fd5b81358181111561176457600080fd5b8c60208260051b850101111561177957600080fd5b60208301965080955050505061179160608a0161158e565b915061179f60808a0161157a565b90509295985092959890939650565b600080600080608085870312156117c457600080fd5b843567ffffffffffffffff808211156117dc57600080fd5b9086019060c082890312156117f057600080fd5b6117f86119c7565b6118018361156b565b815261180f6020840161156b565b602082015261182060408401611557565b604082015260608301358281111561183757600080fd5b6118438a828601611501565b60608301525060808301358281111561185b57600080fd5b6118678a828601611501565b60808301525060a08301358281111561187f57600080fd5b61188b8a828601611498565b60a08301525095506118a29150506020860161158e565b92506118b06040860161157a565b9396929550929360600135925050565b6000602082840312156118d257600080fd5b81516bffffffffffffffffffffffff8116811461114a57600080fd5b60008151808452611906816020860160208601611bb6565b601f01601f19169290920160200192915050565b60208152600061114a60208301846118ee565b60408152600061194060408301856118ee565b828103602084015261078481856118ee565b67ffffffffffffffff8416815260606020820152600061197560608301856118ee565b905063ffffffff83166040830152949350505050565b67ffffffffffffffff851681526080602082015260006119ae60808301866118ee565b63ffffffff949094166040830152506060015292915050565b60405160c0810167ffffffffffffffff811182821017156119ea576119ea611c96565b60405290565b604051601f8201601f1916810167ffffffffffffffff81118282101715611a1957611a19611c96565b604052919050565b600067ffffffffffffffff821115611a3b57611a3b611c96565b50601f01601f191660200190565b60008219821115611a5c57611a5c611c54565b500190565b600181815b80851115611a9c578160001904821115611a8257611a82611c54565b80851615611a8f57918102915b93841c9390800290611a66565b509250929050565b600061114a8383600082611aba57506001610f61565b81611ac757506000610f61565b8160018114611add5760028114611ae757611b03565b6001915050610f61565b60ff841115611af857611af8611c54565b50506001821b610f61565b5060208310610133831016604e8410600b8410161715611b26575081810a610f61565b611b308383611a61565b8060001904821115611b4457611b44611c54565b029392505050565b6000816000190483118215151615611b6657611b66611c54565b500290565b600082821015611b7d57611b7d611c54565b500390565b600061114a36848461140c565b80516020808301519190811015611bb0576000198160200360031b1b821691505b50919050565b60005b83811015611bd1578181015183820152602001611bb9565b838111156103ff5750506000910152565b600181811c90821680611bf657607f821691505b60208210811415611bb057634e487b7160e01b600052602260045260246000fd5b6000600019821415611c2b57611c2b611c54565b5060010190565b600082611c4f57634e487b7160e01b600052601260045260246000fd5b500690565b634e487b7160e01b600052601160045260246000fd5b634e487b7160e01b600052602160045260246000fd5b634e487b7160e01b600052603260045260246000fd5b634e487b7160e01b600052604160045260246000fdfea26469706673582212200dfa25ba32f0db738e8387c086c9d8132dcba97c16474465163a982768e4fbd564736f6c63430008070033","opcodes":"PUSH1 0xA0 PUSH1 0x40 MSTORE PUSH1 0x0 PUSH1 0x6 SSTORE PUSH1 0x3C PUSH1 0x7 SSTORE PUSH1 0x40 MLOAD PUSH3 0x1DF0 CODESIZE SUB DUP1 PUSH3 0x1DF0 DUP4 CODECOPY DUP2 ADD PUSH1 0x40 DUP2 SWAP1 MSTORE PUSH3 0x30 SWAP2 PUSH3 0xB0 JUMP JUMPDEST PUSH1 0x0 DUP1 SLOAD PUSH1 0x1 PUSH1 0x1 PUSH1 0xA0 SHL SUB NOT AND PUSH1 0x1 PUSH1 0x1 PUSH1 0xA0 SHL SUB DUP5 AND OR SWAP1 SSTORE PUSH1 0x5 DUP1 SLOAD PUSH1 0x60 SWAP3 SWAP1 SWAP3 SHL PUSH1 0x1 PUSH1 0x1 PUSH1 0x60 SHL SUB NOT AND PUSH1 0x80 MSTORE TIMESTAMP PUSH1 0x9 SSTORE PUSH1 0x1 PUSH1 0xA0 SHL PUSH1 0x1 PUSH1 0x1 PUSH1 0xB0 SHL SUB NOT SWAP1 SWAP3 AND CALLER PUSH2 0xFFFF PUSH1 0xA0 SHL NOT AND OR SWAP2 SWAP1 SWAP2 OR SWAP1 SSTORE POP PUSH1 0x0 PUSH1 0x8 SSTORE PUSH3 0xE8 JUMP JUMPDEST DUP1 MLOAD PUSH1 0x1 PUSH1 0x1 PUSH1 0xA0 SHL SUB DUP2 AND DUP2 EQ PUSH3 0xAB JUMPI PUSH1 0x0 DUP1 REVERT JUMPDEST SWAP2 SWAP1 POP JUMP JUMPDEST PUSH1 0x0 DUP1 PUSH1 0x40 DUP4 DUP6 SUB SLT ISZERO PUSH3 0xC4 JUMPI PUSH1 0x0 DUP1 REVERT JUMPDEST PUSH3 0xCF DUP4 PUSH3 0x93 JUMP JUMPDEST SWAP2 POP PUSH3 0xDF PUSH1 0x20 DUP5 ADD PUSH3 0x93 JUMP JUMPDEST SWAP1 POP SWAP3 POP SWAP3 SWAP1 POP JUMP JUMPDEST PUSH1 0x80 MLOAD PUSH1 0x60 SHR PUSH2 0x1CE2 PUSH3 0x10E PUSH1 0x0 CODECOPY PUSH1 0x0 DUP2 DUP2 PUSH2 0x17B ADD MSTORE PUSH2 0xE19 ADD MSTORE PUSH2 0x1CE2 PUSH1 0x0 RETURN INVALID PUSH1 0x80 PUSH1 0x40 MSTORE PUSH1 0x4 CALLDATASIZE LT PUSH2 0x112 JUMPI PUSH1 0x0 CALLDATALOAD PUSH1 0xE0 SHR DUP1 PUSH4 0x84836D91 GT PUSH2 0xA5 JUMPI DUP1 PUSH4 0xD328A91E GT PUSH2 0x74 JUMPI DUP1 PUSH4 0xDBC837C5 GT PUSH2 0x59 JUMPI DUP1 PUSH4 0xDBC837C5 EQ PUSH2 0x2FC JUMPI DUP1 PUSH4 0xE289FCB6 EQ PUSH2 0x31C JUMPI DUP1 PUSH4 0xFFFEB84E EQ PUSH2 0x33D JUMPI PUSH1 0x0 DUP1 REVERT JUMPDEST DUP1 PUSH4 0xD328A91E EQ PUSH2 0x2AA JUMPI DUP1 PUSH4 0xD4B39175 EQ PUSH2 0x2BF JUMPI PUSH1 0x0 DUP1 REVERT JUMPDEST DUP1 PUSH4 0x84836D91 EQ PUSH2 0x247 JUMPI DUP1 PUSH4 0x9D000ECC EQ PUSH2 0x25C JUMPI DUP1 PUSH4 0xBEF3A2F0 EQ PUSH2 0x272 JUMPI DUP1 PUSH4 0xCF990EB3 EQ PUSH2 0x294 JUMPI PUSH1 0x0 DUP1 REVERT JUMPDEST DUP1 PUSH4 0x27714589 GT PUSH2 0xE1 JUMPI DUP1 PUSH4 0x27714589 EQ PUSH2 0x1CB JUMPI DUP1 PUSH4 0x456F3D0E EQ PUSH2 0x1EB JUMPI DUP1 PUSH4 0x5FDC6281 EQ PUSH2 0x201 JUMPI DUP1 PUSH4 0x6C3EE301 EQ PUSH2 0x216 JUMPI PUSH1 0x0 DUP1 REVERT JUMPDEST DUP1 PUSH4 0x58F3C0B EQ PUSH2 0x11E JUMPI DUP1 PUSH4 0xCA76175 EQ PUSH2 0x147 JUMPI DUP1 PUSH4 0x109E94CF EQ PUSH2 0x169 JUMPI DUP1 PUSH4 0x1AA46F59 EQ PUSH2 0x1B5 JUMPI PUSH1 0x0 DUP1 REVERT JUMPDEST CALLDATASIZE PUSH2 0x119 JUMPI STOP JUMPDEST PUSH1 0x0 DUP1 REVERT JUMPDEST CALLVALUE DUP1 ISZERO PUSH2 0x12A JUMPI PUSH1 0x0 DUP1 REVERT JUMPDEST POP PUSH2 0x134 PUSH1 0x6 SLOAD DUP2 JUMP JUMPDEST PUSH1 0x40 MLOAD SWAP1 DUP2 MSTORE PUSH1 0x20 ADD JUMPDEST PUSH1 0x40 MLOAD DUP1 SWAP2 SUB SWAP1 RETURN JUMPDEST CALLVALUE DUP1 ISZERO PUSH2 0x153 JUMPI PUSH1 0x0 DUP1 REVERT JUMPDEST POP PUSH2 0x167 PUSH2 0x162 CALLDATASIZE PUSH1 0x4 PUSH2 0x15E8 JUMP JUMPDEST PUSH2 0x352 JUMP JUMPDEST STOP JUMPDEST CALLVALUE DUP1 ISZERO PUSH2 0x175 JUMPI PUSH1 0x0 DUP1 REVERT JUMPDEST POP PUSH2 0x19D PUSH32 0x0 DUP2 JUMP JUMPDEST PUSH1 0x40 MLOAD PUSH1 0x1 PUSH1 0x1 PUSH1 0xA0 SHL SUB SWAP1 SWAP2 AND DUP2 MSTORE PUSH1 0x20 ADD PUSH2 0x13E JUMP JUMPDEST CALLVALUE DUP1 ISZERO PUSH2 0x1C1 JUMPI PUSH1 0x0 DUP1 REVERT JUMPDEST POP PUSH2 0x134 PUSH1 0x2 SLOAD DUP2 JUMP JUMPDEST CALLVALUE DUP1 ISZERO PUSH2 0x1D7 JUMPI PUSH1 0x0 DUP1 REVERT JUMPDEST POP PUSH2 0x134 PUSH2 0x1E6 CALLDATASIZE PUSH1 0x4 PUSH2 0x16C3 JUMP JUMPDEST PUSH2 0x405 JUMP JUMPDEST CALLVALUE DUP1 ISZERO PUSH2 0x1F7 JUMPI PUSH1 0x0 DUP1 REVERT JUMPDEST POP PUSH2 0x134 PUSH1 0x7 SLOAD DUP2 JUMP JUMPDEST CALLVALUE DUP1 ISZERO PUSH2 0x20D JUMPI PUSH1 0x0 DUP1 REVERT JUMPDEST POP PUSH2 0x134 PUSH1 0x3C DUP2 JUMP JUMPDEST CALLVALUE DUP1 ISZERO PUSH2 0x222 JUMPI PUSH1 0x0 DUP1 REVERT JUMPDEST POP PUSH1 0x5 SLOAD PUSH2 0x237 SWAP1 PUSH1 0x1 PUSH1 0xA8 SHL SWAP1 DIV PUSH1 0xFF AND DUP2 JUMP JUMPDEST PUSH1 0x40 MLOAD SWAP1 ISZERO ISZERO DUP2 MSTORE PUSH1 0x20 ADD PUSH2 0x13E JUMP JUMPDEST CALLVALUE DUP1 ISZERO PUSH2 0x253 JUMPI PUSH1 0x0 DUP1 REVERT JUMPDEST POP PUSH2 0x134 PUSH1 0x3 DUP2 JUMP JUMPDEST CALLVALUE DUP1 ISZERO PUSH2 0x268 JUMPI PUSH1 0x0 DUP1 REVERT JUMPDEST POP PUSH2 0x134 PUSH1 0x9 SLOAD DUP2 JUMP JUMPDEST CALLVALUE DUP1 ISZERO PUSH2 0x27E JUMPI PUSH1 0x0 DUP1 REVERT JUMPDEST POP PUSH2 0x287 PUSH2 0x5CB JUMP JUMPDEST PUSH1 0x40 MLOAD PUSH2 0x13E SWAP2 SWAP1 PUSH2 0x191A JUMP JUMPDEST CALLVALUE DUP1 ISZERO PUSH2 0x2A0 JUMPI PUSH1 0x0 DUP1 REVERT JUMPDEST POP PUSH2 0x134 PUSH1 0x8 SLOAD DUP2 JUMP JUMPDEST CALLVALUE DUP1 ISZERO PUSH2 0x2B6 JUMPI PUSH1 0x0 DUP1 REVERT JUMPDEST POP PUSH2 0x287 PUSH2 0x659 JUMP JUMPDEST CALLVALUE DUP1 ISZERO PUSH2 0x2CB JUMPI PUSH1 0x0 DUP1 REVERT JUMPDEST POP PUSH2 0x2DF PUSH2 0x2DA CALLDATASIZE PUSH1 0x4 PUSH2 0x17AE JUMP JUMPDEST PUSH2 0x6F7 JUMP JUMPDEST PUSH1 0x40 MLOAD PUSH12 0xFFFFFFFFFFFFFFFFFFFFFFFF SWAP1 SWAP2 AND DUP2 MSTORE PUSH1 0x20 ADD PUSH2 0x13E JUMP JUMPDEST CALLVALUE DUP1 ISZERO PUSH2 0x308 JUMPI PUSH1 0x0 DUP1 REVERT JUMPDEST POP PUSH1 0x5 SLOAD PUSH2 0x19D SWAP1 PUSH1 0x1 PUSH1 0x1 PUSH1 0xA0 SHL SUB AND DUP2 JUMP JUMPDEST CALLVALUE DUP1 ISZERO PUSH2 0x328 JUMPI PUSH1 0x0 DUP1 REVERT JUMPDEST POP PUSH1 0x5 SLOAD PUSH2 0x237 SWAP1 PUSH1 0x1 PUSH1 0xA0 SHL SWAP1 DIV PUSH1 0xFF AND DUP2 JUMP JUMPDEST CALLVALUE DUP1 ISZERO PUSH2 0x349 JUMPI PUSH1 0x0 DUP1 REVERT JUMPDEST POP PUSH2 0x287 PUSH2 0x78D JUMP JUMPDEST PUSH1 0x0 DUP4 DUP2 MSTORE PUSH1 0x1 PUSH1 0x20 MSTORE PUSH1 0x40 SWAP1 KECCAK256 SLOAD DUP4 SWAP1 PUSH1 0x1 PUSH1 0x1 PUSH1 0xA0 SHL SUB AND CALLER EQ PUSH2 0x3A4 JUMPI PUSH1 0x40 MLOAD PUSH32 0xA0C5EC6300000000000000000000000000000000000000000000000000000000 DUP2 MSTORE PUSH1 0x4 ADD PUSH1 0x40 MLOAD DUP1 SWAP2 SUB SWAP1 REVERT JUMPDEST PUSH1 0x0 DUP2 DUP2 MSTORE PUSH1 0x1 PUSH1 0x20 MSTORE PUSH1 0x40 DUP1 DUP3 KECCAK256 DUP1 SLOAD PUSH20 0xFFFFFFFFFFFFFFFFFFFFFFFFFFFFFFFFFFFFFFFF NOT AND SWAP1 SSTORE MLOAD DUP3 SWAP2 PUSH32 0x85E1543BF2F84FE80C6BADBCE3648C8539AD1DF4D2B3D822938CA0538BE727E6 SWAP2 LOG2 PUSH2 0x3FF DUP5 DUP5 DUP5 PUSH2 0x79A JUMP JUMPDEST POP POP POP POP JUMP JUMPDEST PUSH1 0x0 PUSH1 0x3C PUSH1 0x9 SLOAD TIMESTAMP PUSH2 0x417 SWAP2 SWAP1 PUSH2 0x1B6B JUMP JUMPDEST GT PUSH2 0x469 JUMPI PUSH1 0x40 MLOAD PUSH3 0x461BCD PUSH1 0xE5 SHL DUP2 MSTORE PUSH1 0x20 PUSH1 0x4 DUP3 ADD MSTORE PUSH1 0x11 PUSH1 0x24 DUP3 ADD MSTORE PUSH32 0x4F6E6520636865636B2070657220646179000000000000000000000000000000 PUSH1 0x44 DUP3 ADD MSTORE PUSH1 0x64 ADD JUMPDEST PUSH1 0x40 MLOAD DUP1 SWAP2 SUB SWAP1 REVERT JUMPDEST PUSH1 0x5 SLOAD PUSH1 0x1 PUSH1 0xA0 SHL SWAP1 DIV PUSH1 0xFF AND ISZERO ISZERO PUSH1 0x1 EQ PUSH2 0x4C7 JUMPI PUSH1 0x40 MLOAD PUSH3 0x461BCD PUSH1 0xE5 SHL DUP2 MSTORE PUSH1 0x20 PUSH1 0x4 DUP3 ADD MSTORE PUSH1 0x12 PUSH1 0x24 DUP3 ADD MSTORE PUSH32 0x436F6E74726163742068617320656E6465640000000000000000000000000000 PUSH1 0x44 DUP3 ADD MSTORE PUSH1 0x64 ADD PUSH2 0x460 JUMP JUMPDEST PUSH2 0x501 PUSH1 0x40 DUP1 MLOAD PUSH1 0xC0 DUP2 ADD SWAP1 SWAP2 MSTORE DUP1 PUSH1 0x0 DUP2 MSTORE PUSH1 0x20 ADD PUSH1 0x0 DUP2 MSTORE PUSH1 0x20 ADD PUSH1 0x0 DUP2 MSTORE PUSH1 0x20 ADD PUSH1 0x60 DUP2 MSTORE PUSH1 0x20 ADD PUSH1 0x60 DUP2 MSTORE PUSH1 0x20 ADD PUSH1 0x60 DUP2 MSTORE POP SWAP1 JUMP JUMPDEST PUSH2 0x548 PUSH1 0x0 DUP1 DUP13 DUP13 DUP1 DUP1 PUSH1 0x1F ADD PUSH1 0x20 DUP1 SWAP2 DIV MUL PUSH1 0x20 ADD PUSH1 0x40 MLOAD SWAP1 DUP2 ADD PUSH1 0x40 MSTORE DUP1 SWAP4 SWAP3 SWAP2 SWAP1 DUP2 DUP2 MSTORE PUSH1 0x20 ADD DUP4 DUP4 DUP1 DUP3 DUP5 CALLDATACOPY PUSH1 0x0 SWAP3 ADD SWAP2 SWAP1 SWAP2 MSTORE POP DUP8 SWAP6 SWAP5 SWAP4 SWAP3 POP POP PUSH2 0x851 SWAP1 POP JUMP JUMPDEST DUP7 ISZERO PUSH2 0x590 JUMPI PUSH2 0x590 DUP9 DUP9 DUP1 DUP1 PUSH1 0x1F ADD PUSH1 0x20 DUP1 SWAP2 DIV MUL PUSH1 0x20 ADD PUSH1 0x40 MLOAD SWAP1 DUP2 ADD PUSH1 0x40 MSTORE DUP1 SWAP4 SWAP3 SWAP2 SWAP1 DUP2 DUP2 MSTORE PUSH1 0x20 ADD DUP4 DUP4 DUP1 DUP3 DUP5 CALLDATACOPY PUSH1 0x0 SWAP3 ADD SWAP2 SWAP1 SWAP2 MSTORE POP DUP6 SWAP4 SWAP3 POP POP PUSH2 0x8E5 SWAP1 POP JUMP JUMPDEST DUP5 ISZERO PUSH2 0x5AA JUMPI PUSH2 0x5AA PUSH2 0x5A3 DUP7 DUP9 PUSH2 0x1B82 JUMP JUMPDEST DUP3 SWAP1 PUSH2 0x92C JUMP JUMPDEST PUSH1 0x0 PUSH2 0x5B7 DUP3 DUP7 DUP7 PUSH2 0x96C JUMP JUMPDEST PUSH1 0x2 DUP2 SWAP1 SSTORE SWAP12 SWAP11 POP POP POP POP POP POP POP POP POP POP POP JUMP JUMPDEST PUSH1 0x3 DUP1 SLOAD PUSH2 0x5D8 SWAP1 PUSH2 0x1BE2 JUMP JUMPDEST DUP1 PUSH1 0x1F ADD PUSH1 0x20 DUP1 SWAP2 DIV MUL PUSH1 0x20 ADD PUSH1 0x40 MLOAD SWAP1 DUP2 ADD PUSH1 0x40 MSTORE DUP1 SWAP3 SWAP2 SWAP1 DUP2 DUP2 MSTORE PUSH1 0x20 ADD DUP3 DUP1 SLOAD PUSH2 0x604 SWAP1 PUSH2 0x1BE2 JUMP JUMPDEST DUP1 ISZERO PUSH2 0x651 JUMPI DUP1 PUSH1 0x1F LT PUSH2 0x626 JUMPI PUSH2 0x100 DUP1 DUP4 SLOAD DIV MUL DUP4 MSTORE SWAP2 PUSH1 0x20 ADD SWAP2 PUSH2 0x651 JUMP JUMPDEST DUP3 ADD SWAP2 SWAP1 PUSH1 0x0 MSTORE PUSH1 0x20 PUSH1 0x0 KECCAK256 SWAP1 JUMPDEST DUP2 SLOAD DUP2 MSTORE SWAP1 PUSH1 0x1 ADD SWAP1 PUSH1 0x20 ADD DUP1 DUP4 GT PUSH2 0x634 JUMPI DUP3 SWAP1 SUB PUSH1 0x1F AND DUP3 ADD SWAP2 JUMPDEST POP POP POP POP POP DUP2 JUMP JUMPDEST PUSH1 0x0 DUP1 SLOAD PUSH1 0x40 DUP1 MLOAD PUSH32 0xD328A91E00000000000000000000000000000000000000000000000000000000 DUP2 MSTORE SWAP1 MLOAD PUSH1 0x60 SWAP4 PUSH1 0x1 PUSH1 0x1 PUSH1 0xA0 SHL SUB SWAP1 SWAP4 AND SWAP3 PUSH4 0xD328A91E SWAP3 PUSH1 0x4 DUP1 DUP3 ADD SWAP4 SWAP2 DUP3 SWAP1 SUB ADD DUP2 DUP7 DUP1 EXTCODESIZE ISZERO DUP1 ISZERO PUSH2 0x6B6 JUMPI PUSH1 0x0 DUP1 REVERT JUMPDEST POP GAS STATICCALL ISZERO DUP1 ISZERO PUSH2 0x6CA JUMPI RETURNDATASIZE PUSH1 0x0 DUP1 RETURNDATACOPY RETURNDATASIZE PUSH1 0x0 REVERT JUMPDEST POP POP POP POP PUSH1 0x40 MLOAD RETURNDATASIZE PUSH1 0x0 DUP3 RETURNDATACOPY PUSH1 0x1F RETURNDATASIZE SWAP1 DUP2 ADD PUSH1 0x1F NOT AND DUP3 ADD PUSH1 0x40 MSTORE PUSH2 0x6F2 SWAP2 SWAP1 DUP2 ADD SWAP1 PUSH2 0x1655 JUMP JUMPDEST SWAP1 POP SWAP1 JUMP JUMPDEST PUSH1 0x0 DUP1 SLOAD PUSH1 0x1 PUSH1 0x1 PUSH1 0xA0 SHL SUB AND PUSH4 0xD227D245 DUP6 PUSH2 0x713 DUP9 PUSH2 0xAEB JUMP JUMPDEST DUP7 DUP7 PUSH1 0x40 MLOAD DUP6 PUSH4 0xFFFFFFFF AND PUSH1 0xE0 SHL DUP2 MSTORE PUSH1 0x4 ADD PUSH2 0x734 SWAP5 SWAP4 SWAP3 SWAP2 SWAP1 PUSH2 0x198B JUMP JUMPDEST PUSH1 0x20 PUSH1 0x40 MLOAD DUP1 DUP4 SUB DUP2 DUP7 DUP1 EXTCODESIZE ISZERO DUP1 ISZERO PUSH2 0x74C JUMPI PUSH1 0x0 DUP1 REVERT JUMPDEST POP GAS STATICCALL ISZERO DUP1 ISZERO PUSH2 0x760 JUMPI RETURNDATASIZE PUSH1 0x0 DUP1 RETURNDATACOPY RETURNDATASIZE PUSH1 0x0 REVERT JUMPDEST POP POP POP POP PUSH1 0x40 MLOAD RETURNDATASIZE PUSH1 0x1F NOT PUSH1 0x1F DUP3 ADD AND DUP3 ADD DUP1 PUSH1 0x40 MSTORE POP DUP2 ADD SWAP1 PUSH2 0x784 SWAP2 SWAP1 PUSH2 0x18C0 JUMP JUMPDEST SWAP6 SWAP5 POP POP POP POP POP JUMP JUMPDEST PUSH1 0x4 DUP1 SLOAD PUSH2 0x5D8 SWAP1 PUSH2 0x1BE2 JUMP JUMPDEST DUP2 MLOAD PUSH2 0x7AD SWAP1 PUSH1 0x3 SWAP1 PUSH1 0x20 DUP6 ADD SWAP1 PUSH2 0x133E JUMP JUMPDEST POP DUP1 MLOAD PUSH2 0x7C1 SWAP1 PUSH1 0x4 SWAP1 PUSH1 0x20 DUP5 ADD SWAP1 PUSH2 0x133E JUMP JUMPDEST POP DUP3 PUSH32 0x7BAB0EC163B5C132C72B8146AC4D6E067E82ED58F8B131150AA71C9258911562 DUP4 DUP4 PUSH1 0x40 MLOAD PUSH2 0x7F4 SWAP3 SWAP2 SWAP1 PUSH2 0x192D JUMP JUMPDEST PUSH1 0x40 MLOAD DUP1 SWAP2 SUB SWAP1 LOG2 TIMESTAMP PUSH1 0x9 SSTORE PUSH2 0x809 DUP3 PUSH2 0x1B8F JUMP JUMPDEST PUSH1 0x8 DUP2 SWAP1 SSTORE PUSH1 0x7 SLOAD LT ISZERO PUSH2 0x821 JUMPI PUSH1 0x0 PUSH1 0x6 SSTORE PUSH2 0x83A JUMP JUMPDEST PUSH1 0x1 PUSH1 0x6 PUSH1 0x0 DUP3 DUP3 SLOAD PUSH2 0x834 SWAP2 SWAP1 PUSH2 0x1A49 JUMP JUMPDEST SWAP1 SWAP2 SSTORE POP POP JUMPDEST PUSH1 0x3 PUSH1 0x6 SLOAD LT PUSH2 0x84C JUMPI PUSH2 0x84C PUSH2 0xDB7 JUMP JUMPDEST POP POP POP JUMP JUMPDEST DUP1 MLOAD PUSH2 0x889 JUMPI PUSH1 0x40 MLOAD PUSH32 0x22CE3EDD00000000000000000000000000000000000000000000000000000000 DUP2 MSTORE PUSH1 0x4 ADD PUSH1 0x40 MLOAD DUP1 SWAP2 SUB SWAP1 REVERT JUMPDEST DUP4 DUP4 PUSH1 0x1 DUP2 GT ISZERO PUSH2 0x89C JUMPI PUSH2 0x89C PUSH2 0x1C6A JUMP JUMPDEST SWAP1 DUP2 PUSH1 0x1 DUP2 GT ISZERO PUSH2 0x8AF JUMPI PUSH2 0x8AF PUSH2 0x1C6A JUMP JUMPDEST SWAP1 MSTORE POP PUSH1 0x40 DUP5 ADD DUP3 DUP1 ISZERO PUSH2 0x8C5 JUMPI PUSH2 0x8C5 PUSH2 0x1C6A JUMP JUMPDEST SWAP1 DUP2 DUP1 ISZERO PUSH2 0x8D5 JUMPI PUSH2 0x8D5 PUSH2 0x1C6A JUMP JUMPDEST SWAP1 MSTORE POP PUSH1 0x60 SWAP1 SWAP4 ADD SWAP3 SWAP1 SWAP3 MSTORE POP POP JUMP JUMPDEST DUP1 MLOAD PUSH2 0x91D JUMPI PUSH1 0x40 MLOAD PUSH32 0xE889636F00000000000000000000000000000000000000000000000000000000 DUP2 MSTORE PUSH1 0x4 ADD PUSH1 0x40 MLOAD DUP1 SWAP2 SUB SWAP1 REVERT JUMPDEST PUSH1 0x1 PUSH1 0x20 DUP4 ADD MSTORE PUSH1 0x80 SWAP1 SWAP2 ADD MSTORE JUMP JUMPDEST DUP1 MLOAD PUSH2 0x964 JUMPI PUSH1 0x40 MLOAD PUSH32 0xFE936CB700000000000000000000000000000000000000000000000000000000 DUP2 MSTORE PUSH1 0x4 ADD PUSH1 0x40 MLOAD DUP1 SWAP2 SUB SWAP1 REVERT JUMPDEST PUSH1 0xA0 SWAP1 SWAP2 ADD MSTORE JUMP JUMPDEST PUSH1 0x0 DUP1 SLOAD DUP2 SWAP1 PUSH1 0x1 PUSH1 0x1 PUSH1 0xA0 SHL SUB AND PUSH4 0x28242B04 DUP6 PUSH2 0x98A DUP9 PUSH2 0xAEB JUMP JUMPDEST DUP7 PUSH1 0x40 MLOAD DUP5 PUSH4 0xFFFFFFFF AND PUSH1 0xE0 SHL DUP2 MSTORE PUSH1 0x4 ADD PUSH2 0x9A9 SWAP4 SWAP3 SWAP2 SWAP1 PUSH2 0x1952 JUMP JUMPDEST PUSH1 0x20 PUSH1 0x40 MLOAD DUP1 DUP4 SUB DUP2 PUSH1 0x0 DUP8 DUP1 EXTCODESIZE ISZERO DUP1 ISZERO PUSH2 0x9C3 JUMPI PUSH1 0x0 DUP1 REVERT JUMPDEST POP GAS CALL ISZERO DUP1 ISZERO PUSH2 0x9D7 JUMPI RETURNDATASIZE PUSH1 0x0 DUP1 RETURNDATACOPY RETURNDATASIZE PUSH1 0x0 REVERT JUMPDEST POP POP POP POP PUSH1 0x40 MLOAD RETURNDATASIZE PUSH1 0x1F NOT PUSH1 0x1F DUP3 ADD AND DUP3 ADD DUP1 PUSH1 0x40 MSTORE POP DUP2 ADD SWAP1 PUSH2 0x9FB SWAP2 SWAP1 PUSH2 0x15CF JUMP JUMPDEST SWAP1 POP PUSH1 0x0 DUP1 SLOAD SWAP1 PUSH2 0x100 EXP SWAP1 DIV PUSH1 0x1 PUSH1 0x1 PUSH1 0xA0 SHL SUB AND PUSH1 0x1 PUSH1 0x1 PUSH1 0xA0 SHL SUB AND PUSH4 0x5AB1BD53 PUSH1 0x40 MLOAD DUP2 PUSH4 0xFFFFFFFF AND PUSH1 0xE0 SHL DUP2 MSTORE PUSH1 0x4 ADD PUSH1 0x20 PUSH1 0x40 MLOAD DUP1 DUP4 SUB DUP2 DUP7 DUP1 EXTCODESIZE ISZERO DUP1 ISZERO PUSH2 0xA49 JUMPI PUSH1 0x0 DUP1 REVERT JUMPDEST POP GAS STATICCALL ISZERO DUP1 ISZERO PUSH2 0xA5D JUMPI RETURNDATASIZE PUSH1 0x0 DUP1 RETURNDATACOPY RETURNDATASIZE PUSH1 0x0 REVERT JUMPDEST POP POP POP POP PUSH1 0x40 MLOAD RETURNDATASIZE PUSH1 0x1F NOT PUSH1 0x1F DUP3 ADD AND DUP3 ADD DUP1 PUSH1 0x40 MSTORE POP DUP2 ADD SWAP1 PUSH2 0xA81 SWAP2 SWAP1 PUSH2 0x15A6 JUMP JUMPDEST PUSH1 0x0 DUP3 DUP2 MSTORE PUSH1 0x1 PUSH1 0x20 MSTORE PUSH1 0x40 DUP1 DUP3 KECCAK256 DUP1 SLOAD PUSH20 0xFFFFFFFFFFFFFFFFFFFFFFFFFFFFFFFFFFFFFFFF NOT AND PUSH1 0x1 PUSH1 0x1 PUSH1 0xA0 SHL SUB SWAP5 SWAP1 SWAP5 AND SWAP4 SWAP1 SWAP4 OR SWAP1 SWAP3 SSTORE SWAP1 MLOAD DUP3 SWAP2 PUSH32 0x1131472297A800FEE664D1D89CFA8F7676FF07189ECC53F80BBB5F4969099DB8 SWAP2 LOG2 SWAP5 SWAP4 POP POP POP POP JUMP JUMPDEST PUSH1 0x60 PUSH2 0xAF5 PUSH2 0x13C2 JUMP JUMPDEST DUP1 MLOAD PUSH2 0xB03 SWAP1 PUSH2 0x100 PUSH2 0xEED JUMP JUMPDEST POP PUSH2 0xB43 DUP2 PUSH1 0x40 MLOAD DUP1 PUSH1 0x40 ADD PUSH1 0x40 MSTORE DUP1 PUSH1 0xC DUP2 MSTORE PUSH1 0x20 ADD PUSH32 0x636F64654C6F636174696F6E0000000000000000000000000000000000000000 DUP2 MSTORE POP PUSH2 0xF67 JUMP JUMPDEST PUSH2 0xB62 DUP2 DUP5 PUSH1 0x0 ADD MLOAD PUSH1 0x1 DUP2 GT ISZERO PUSH2 0xB5D JUMPI PUSH2 0xB5D PUSH2 0x1C6A JUMP JUMPDEST PUSH2 0xF80 JUMP JUMPDEST PUSH2 0xBA1 DUP2 PUSH1 0x40 MLOAD DUP1 PUSH1 0x40 ADD PUSH1 0x40 MSTORE DUP1 PUSH1 0x8 DUP2 MSTORE PUSH1 0x20 ADD PUSH32 0x6C616E6775616765000000000000000000000000000000000000000000000000 DUP2 MSTORE POP PUSH2 0xF67 JUMP JUMPDEST PUSH2 0xBBB DUP2 DUP5 PUSH1 0x40 ADD MLOAD PUSH1 0x0 DUP2 GT ISZERO PUSH2 0xB5D JUMPI PUSH2 0xB5D PUSH2 0x1C6A JUMP JUMPDEST PUSH2 0xBFA DUP2 PUSH1 0x40 MLOAD DUP1 PUSH1 0x40 ADD PUSH1 0x40 MSTORE DUP1 PUSH1 0x6 DUP2 MSTORE PUSH1 0x20 ADD PUSH32 0x736F757263650000000000000000000000000000000000000000000000000000 DUP2 MSTORE POP PUSH2 0xF67 JUMP JUMPDEST PUSH2 0xC08 DUP2 DUP5 PUSH1 0x60 ADD MLOAD PUSH2 0xF67 JUMP JUMPDEST PUSH1 0xA0 DUP4 ADD MLOAD MLOAD ISZERO PUSH2 0xCAE JUMPI PUSH2 0xC52 DUP2 PUSH1 0x40 MLOAD DUP1 PUSH1 0x40 ADD PUSH1 0x40 MSTORE DUP1 PUSH1 0x4 DUP2 MSTORE PUSH1 0x20 ADD PUSH32 0x6172677300000000000000000000000000000000000000000000000000000000 DUP2 MSTORE POP PUSH2 0xF67 JUMP JUMPDEST PUSH2 0xC5B DUP2 PUSH2 0xFBD JUMP JUMPDEST PUSH1 0x0 JUMPDEST DUP4 PUSH1 0xA0 ADD MLOAD MLOAD DUP2 LT ISZERO PUSH2 0xCA4 JUMPI PUSH2 0xC92 DUP3 DUP6 PUSH1 0xA0 ADD MLOAD DUP4 DUP2 MLOAD DUP2 LT PUSH2 0xC85 JUMPI PUSH2 0xC85 PUSH2 0x1C80 JUMP JUMPDEST PUSH1 0x20 MUL PUSH1 0x20 ADD ADD MLOAD PUSH2 0xF67 JUMP JUMPDEST DUP1 PUSH2 0xC9C DUP2 PUSH2 0x1C17 JUMP JUMPDEST SWAP2 POP POP PUSH2 0xC5E JUMP JUMPDEST POP PUSH2 0xCAE DUP2 PUSH2 0xFE1 JUMP JUMPDEST PUSH1 0x80 DUP4 ADD MLOAD MLOAD ISZERO PUSH2 0xDAF JUMPI PUSH1 0x0 DUP4 PUSH1 0x20 ADD MLOAD PUSH1 0x1 DUP2 GT ISZERO PUSH2 0xCD1 JUMPI PUSH2 0xCD1 PUSH2 0x1C6A JUMP JUMPDEST EQ ISZERO PUSH2 0xD09 JUMPI PUSH1 0x40 MLOAD PUSH32 0xA80D31F700000000000000000000000000000000000000000000000000000000 DUP2 MSTORE PUSH1 0x4 ADD PUSH1 0x40 MLOAD DUP1 SWAP2 SUB SWAP1 REVERT JUMPDEST PUSH2 0xD48 DUP2 PUSH1 0x40 MLOAD DUP1 PUSH1 0x40 ADD PUSH1 0x40 MSTORE DUP1 PUSH1 0xF DUP2 MSTORE PUSH1 0x20 ADD PUSH32 0x736563726574734C6F636174696F6E0000000000000000000000000000000000 DUP2 MSTORE POP PUSH2 0xF67 JUMP JUMPDEST PUSH2 0xD62 DUP2 DUP5 PUSH1 0x20 ADD MLOAD PUSH1 0x1 DUP2 GT ISZERO PUSH2 0xB5D JUMPI PUSH2 0xB5D PUSH2 0x1C6A JUMP JUMPDEST PUSH2 0xDA1 DUP2 PUSH1 0x40 MLOAD DUP1 PUSH1 0x40 ADD PUSH1 0x40 MSTORE DUP1 PUSH1 0x7 DUP2 MSTORE PUSH1 0x20 ADD PUSH32 0x7365637265747300000000000000000000000000000000000000000000000000 DUP2 MSTORE POP PUSH2 0xF67 JUMP JUMPDEST PUSH2 0xDAF DUP2 DUP5 PUSH1 0x80 ADD MLOAD PUSH2 0xFFF JUMP JUMPDEST MLOAD MLOAD SWAP3 SWAP2 POP POP JUMP JUMPDEST PUSH1 0x5 SLOAD PUSH1 0x1 PUSH1 0xA0 SHL SWAP1 DIV PUSH1 0xFF AND ISZERO ISZERO PUSH1 0x1 EQ PUSH2 0xE15 JUMPI PUSH1 0x40 MLOAD PUSH3 0x461BCD PUSH1 0xE5 SHL DUP2 MSTORE PUSH1 0x20 PUSH1 0x4 DUP3 ADD MSTORE PUSH1 0x12 PUSH1 0x24 DUP3 ADD MSTORE PUSH32 0x436F6E74726163742068617320656E6465640000000000000000000000000000 PUSH1 0x44 DUP3 ADD MSTORE PUSH1 0x64 ADD PUSH2 0x460 JUMP JUMPDEST PUSH1 0x0 PUSH32 0x0 PUSH1 0x1 PUSH1 0x1 PUSH1 0xA0 SHL SUB AND SELFBALANCE PUSH1 0x40 MLOAD PUSH1 0x0 PUSH1 0x40 MLOAD DUP1 DUP4 SUB DUP2 DUP6 DUP8 GAS CALL SWAP3 POP POP POP RETURNDATASIZE DUP1 PUSH1 0x0 DUP2 EQ PUSH2 0xE82 JUMPI PUSH1 0x40 MLOAD SWAP2 POP PUSH1 0x1F NOT PUSH1 0x3F RETURNDATASIZE ADD AND DUP3 ADD PUSH1 0x40 MSTORE RETURNDATASIZE DUP3 MSTORE RETURNDATASIZE PUSH1 0x0 PUSH1 0x20 DUP5 ADD RETURNDATACOPY PUSH2 0xE87 JUMP JUMPDEST PUSH1 0x60 SWAP2 POP JUMPDEST POP POP PUSH1 0x5 DUP1 SLOAD PUSH32 0xFFFFFFFFFFFFFFFFFFFF0000FFFFFFFFFFFFFFFFFFFFFFFFFFFFFFFFFFFFFFFF AND PUSH1 0x1 PUSH1 0xA0 SHL SWAP3 ISZERO SWAP3 DUP4 MUL PUSH32 0xFFFFFFFFFFFFFFFFFFFF00FFFFFFFFFFFFFFFFFFFFFFFFFFFFFFFFFFFFFFFFFF AND OR SWAP2 ISZERO PUSH1 0x1 PUSH1 0xA8 SHL MUL SWAP2 SWAP1 SWAP2 OR SWAP1 SSTORE POP JUMP JUMPDEST PUSH1 0x40 DUP1 MLOAD DUP1 DUP3 ADD SWAP1 SWAP2 MSTORE PUSH1 0x60 DUP2 MSTORE PUSH1 0x0 PUSH1 0x20 DUP3 ADD MSTORE PUSH2 0xF0D PUSH1 0x20 DUP4 PUSH2 0x1C32 JUMP JUMPDEST ISZERO PUSH2 0xF35 JUMPI PUSH2 0xF1D PUSH1 0x20 DUP4 PUSH2 0x1C32 JUMP JUMPDEST PUSH2 0xF28 SWAP1 PUSH1 0x20 PUSH2 0x1B6B JUMP JUMPDEST PUSH2 0xF32 SWAP1 DUP4 PUSH2 0x1A49 JUMP JUMPDEST SWAP2 POP JUMPDEST PUSH1 0x20 DUP1 DUP5 ADD DUP4 SWAP1 MSTORE PUSH1 0x40 MLOAD DUP1 DUP6 MSTORE PUSH1 0x0 DUP2 MSTORE SWAP1 DUP2 DUP5 ADD ADD DUP2 DUP2 LT ISZERO PUSH2 0xF59 JUMPI PUSH1 0x0 DUP1 REVERT JUMPDEST PUSH1 0x40 MSTORE POP DUP3 SWAP1 POP JUMPDEST SWAP3 SWAP2 POP POP JUMP JUMPDEST PUSH2 0xF74 DUP3 PUSH1 0x3 DUP4 MLOAD PUSH2 0x1008 JUMP JUMPDEST DUP2 MLOAD PUSH2 0x84C SWAP1 DUP3 PUSH2 0x1129 JUMP JUMPDEST DUP2 MLOAD PUSH2 0xF8D SWAP1 PUSH1 0xC2 PUSH2 0x1151 JUMP JUMPDEST POP PUSH2 0xFB9 DUP3 DUP3 PUSH1 0x40 MLOAD PUSH1 0x20 ADD PUSH2 0xFA5 SWAP2 DUP2 MSTORE PUSH1 0x20 ADD SWAP1 JUMP JUMPDEST PUSH1 0x40 MLOAD PUSH1 0x20 DUP2 DUP4 SUB SUB DUP2 MSTORE SWAP1 PUSH1 0x40 MSTORE PUSH2 0xFFF JUMP JUMPDEST POP POP JUMP JUMPDEST PUSH2 0xFC8 DUP2 PUSH1 0x4 PUSH2 0x11BA JUMP JUMPDEST PUSH1 0x1 DUP2 PUSH1 0x20 ADD DUP2 DUP2 MLOAD PUSH2 0xFDB SWAP2 SWAP1 PUSH2 0x1A49 JUMP JUMPDEST SWAP1 MSTORE POP POP JUMP JUMPDEST PUSH2 0xFEC DUP2 PUSH1 0x7 PUSH2 0x11BA JUMP JUMPDEST PUSH1 0x1 DUP2 PUSH1 0x20 ADD DUP2 DUP2 MLOAD PUSH2 0xFDB SWAP2 SWAP1 PUSH2 0x1B6B JUMP JUMPDEST PUSH2 0xF74 DUP3 PUSH1 0x2 DUP4 MLOAD JUMPDEST PUSH1 0x17 DUP2 PUSH8 0xFFFFFFFFFFFFFFFF AND GT PUSH2 0x102F JUMPI DUP3 MLOAD PUSH2 0x3FF SWAP1 PUSH1 0xE0 PUSH1 0x5 DUP6 SWAP1 SHL AND DUP4 OR PUSH2 0x1151 JUMP JUMPDEST PUSH1 0xFF DUP2 PUSH8 0xFFFFFFFFFFFFFFFF AND GT PUSH2 0x1071 JUMPI DUP3 MLOAD PUSH2 0x1058 SWAP1 PUSH1 0x18 PUSH2 0x1FE0 PUSH1 0x5 DUP7 SWAP1 SHL AND OR PUSH2 0x1151 JUMP JUMPDEST POP DUP3 MLOAD PUSH2 0x3FF SWAP1 PUSH8 0xFFFFFFFFFFFFFFFF DUP4 AND PUSH1 0x1 PUSH2 0x11D1 JUMP JUMPDEST PUSH2 0xFFFF DUP2 PUSH8 0xFFFFFFFFFFFFFFFF AND GT PUSH2 0x10B4 JUMPI DUP3 MLOAD PUSH2 0x109B SWAP1 PUSH1 0x19 PUSH2 0x1FE0 PUSH1 0x5 DUP7 SWAP1 SHL AND OR PUSH2 0x1151 JUMP JUMPDEST POP DUP3 MLOAD PUSH2 0x3FF SWAP1 PUSH8 0xFFFFFFFFFFFFFFFF DUP4 AND PUSH1 0x2 PUSH2 0x11D1 JUMP JUMPDEST PUSH4 0xFFFFFFFF DUP2 PUSH8 0xFFFFFFFFFFFFFFFF AND GT PUSH2 0x10F9 JUMPI DUP3 MLOAD PUSH2 0x10E0 SWAP1 PUSH1 0x1A PUSH2 0x1FE0 PUSH1 0x5 DUP7 SWAP1 SHL AND OR PUSH2 0x1151 JUMP JUMPDEST POP DUP3 MLOAD PUSH2 0x3FF SWAP1 PUSH8 0xFFFFFFFFFFFFFFFF DUP4 AND PUSH1 0x4 PUSH2 0x11D1 JUMP JUMPDEST DUP3 MLOAD PUSH2 0x1110 SWAP1 PUSH1 0x1B PUSH2 0x1FE0 PUSH1 0x5 DUP7 SWAP1 SHL AND OR PUSH2 0x1151 JUMP JUMPDEST POP DUP3 MLOAD PUSH2 0x3FF SWAP1 PUSH8 0xFFFFFFFFFFFFFFFF DUP4 AND PUSH1 0x8 PUSH2 0x11D1 JUMP JUMPDEST PUSH1 0x40 DUP1 MLOAD DUP1 DUP3 ADD SWAP1 SWAP2 MSTORE PUSH1 0x60 DUP2 MSTORE PUSH1 0x0 PUSH1 0x20 DUP3 ADD MSTORE PUSH2 0x114A DUP4 DUP4 DUP5 MLOAD PUSH2 0x1256 JUMP JUMPDEST SWAP4 SWAP3 POP POP POP JUMP JUMPDEST PUSH1 0x40 DUP1 MLOAD DUP1 DUP3 ADD SWAP1 SWAP2 MSTORE PUSH1 0x60 DUP2 MSTORE PUSH1 0x0 PUSH1 0x20 DUP3 ADD MSTORE DUP3 MLOAD MLOAD PUSH1 0x0 PUSH2 0x1176 DUP3 PUSH1 0x1 PUSH2 0x1A49 JUMP JUMPDEST SWAP1 POP DUP5 PUSH1 0x20 ADD MLOAD DUP3 LT PUSH2 0x1197 JUMPI PUSH2 0x1197 DUP6 PUSH2 0x1192 DUP4 PUSH1 0x2 PUSH2 0x1B4C JUMP JUMPDEST PUSH2 0x1327 JUMP JUMPDEST DUP5 MLOAD PUSH1 0x20 DUP4 DUP3 ADD ADD DUP6 DUP2 MSTORE8 POP DUP1 MLOAD DUP3 GT ISZERO PUSH2 0x11B0 JUMPI DUP2 DUP2 MSTORE JUMPDEST POP SWAP4 SWAP5 SWAP4 POP POP POP POP JUMP JUMPDEST DUP2 MLOAD PUSH2 0x84C SWAP1 PUSH1 0x1F PUSH2 0x1FE0 PUSH1 0x5 DUP6 SWAP1 SHL AND OR PUSH2 0x1151 JUMP JUMPDEST PUSH1 0x40 DUP1 MLOAD DUP1 DUP3 ADD SWAP1 SWAP2 MSTORE PUSH1 0x60 DUP2 MSTORE PUSH1 0x0 PUSH1 0x20 DUP3 ADD MSTORE DUP4 MLOAD MLOAD PUSH1 0x0 PUSH2 0x11F5 DUP3 DUP6 PUSH2 0x1A49 JUMP JUMPDEST SWAP1 POP DUP6 PUSH1 0x20 ADD MLOAD DUP2 GT ISZERO PUSH2 0x1212 JUMPI PUSH2 0x1212 DUP7 PUSH2 0x1192 DUP4 PUSH1 0x2 PUSH2 0x1B4C JUMP JUMPDEST PUSH1 0x0 PUSH1 0x1 PUSH2 0x1222 DUP7 PUSH2 0x100 PUSH2 0x1AA4 JUMP JUMPDEST PUSH2 0x122C SWAP2 SWAP1 PUSH2 0x1B6B JUMP JUMPDEST SWAP1 POP DUP7 MLOAD DUP3 DUP2 ADD DUP8 DUP4 NOT DUP3 MLOAD AND OR DUP2 MSTORE POP DUP1 MLOAD DUP4 GT ISZERO PUSH2 0x124A JUMPI DUP3 DUP2 MSTORE JUMPDEST POP SWAP6 SWAP7 SWAP6 POP POP POP POP POP POP JUMP JUMPDEST PUSH1 0x40 DUP1 MLOAD DUP1 DUP3 ADD SWAP1 SWAP2 MSTORE PUSH1 0x60 DUP2 MSTORE PUSH1 0x0 PUSH1 0x20 DUP3 ADD MSTORE DUP3 MLOAD DUP3 GT ISZERO PUSH2 0x1279 JUMPI PUSH1 0x0 DUP1 REVERT JUMPDEST DUP4 MLOAD MLOAD PUSH1 0x0 PUSH2 0x1288 DUP5 DUP4 PUSH2 0x1A49 JUMP JUMPDEST SWAP1 POP DUP6 PUSH1 0x20 ADD MLOAD DUP2 GT ISZERO PUSH2 0x12A5 JUMPI PUSH2 0x12A5 DUP7 PUSH2 0x1192 DUP4 PUSH1 0x2 PUSH2 0x1B4C JUMP JUMPDEST DUP6 MLOAD DUP1 MLOAD DUP4 DUP3 ADD PUSH1 0x20 ADD SWAP2 PUSH1 0x0 SWAP2 DUP1 DUP6 GT ISZERO PUSH2 0x12BF JUMPI DUP5 DUP3 MSTORE JUMPDEST POP POP POP PUSH1 0x20 DUP7 ADD JUMPDEST PUSH1 0x20 DUP7 LT PUSH2 0x12FF JUMPI DUP1 MLOAD DUP3 MSTORE PUSH2 0x12DE PUSH1 0x20 DUP4 PUSH2 0x1A49 JUMP JUMPDEST SWAP2 POP PUSH2 0x12EB PUSH1 0x20 DUP3 PUSH2 0x1A49 JUMP JUMPDEST SWAP1 POP PUSH2 0x12F8 PUSH1 0x20 DUP8 PUSH2 0x1B6B JUMP JUMPDEST SWAP6 POP PUSH2 0x12C7 JUMP JUMPDEST MLOAD DUP2 MLOAD PUSH1 0x0 NOT PUSH1 0x20 DUP9 SWAP1 SUB PUSH2 0x100 EXP ADD SWAP1 DUP2 AND SWAP1 NOT SWAP2 SWAP1 SWAP2 AND OR SWAP1 MSTORE POP DUP5 SWAP2 POP POP SWAP4 SWAP3 POP POP POP JUMP JUMPDEST DUP2 MLOAD PUSH2 0x1333 DUP4 DUP4 PUSH2 0xEED JUMP JUMPDEST POP PUSH2 0x3FF DUP4 DUP3 PUSH2 0x1129 JUMP JUMPDEST DUP3 DUP1 SLOAD PUSH2 0x134A SWAP1 PUSH2 0x1BE2 JUMP JUMPDEST SWAP1 PUSH1 0x0 MSTORE PUSH1 0x20 PUSH1 0x0 KECCAK256 SWAP1 PUSH1 0x1F ADD PUSH1 0x20 SWAP1 DIV DUP2 ADD SWAP3 DUP3 PUSH2 0x136C JUMPI PUSH1 0x0 DUP6 SSTORE PUSH2 0x13B2 JUMP JUMPDEST DUP3 PUSH1 0x1F LT PUSH2 0x1385 JUMPI DUP1 MLOAD PUSH1 0xFF NOT AND DUP4 DUP1 ADD OR DUP6 SSTORE PUSH2 0x13B2 JUMP JUMPDEST DUP3 DUP1 ADD PUSH1 0x1 ADD DUP6 SSTORE DUP3 ISZERO PUSH2 0x13B2 JUMPI SWAP2 DUP3 ADD JUMPDEST DUP3 DUP2 GT ISZERO PUSH2 0x13B2 JUMPI DUP3 MLOAD DUP3 SSTORE SWAP2 PUSH1 0x20 ADD SWAP2 SWAP1 PUSH1 0x1 ADD SWAP1 PUSH2 0x1397 JUMP JUMPDEST POP PUSH2 0x13BE SWAP3 SWAP2 POP PUSH2 0x13F7 JUMP JUMPDEST POP SWAP1 JUMP JUMPDEST PUSH1 0x40 MLOAD DUP1 PUSH1 0x40 ADD PUSH1 0x40 MSTORE DUP1 PUSH2 0x13EA PUSH1 0x40 MLOAD DUP1 PUSH1 0x40 ADD PUSH1 0x40 MSTORE DUP1 PUSH1 0x60 DUP2 MSTORE PUSH1 0x20 ADD PUSH1 0x0 DUP2 MSTORE POP SWAP1 JUMP JUMPDEST DUP2 MSTORE PUSH1 0x20 ADD PUSH1 0x0 DUP2 MSTORE POP SWAP1 JUMP JUMPDEST JUMPDEST DUP1 DUP3 GT ISZERO PUSH2 0x13BE JUMPI PUSH1 0x0 DUP2 SSTORE PUSH1 0x1 ADD PUSH2 0x13F8 JUMP JUMPDEST PUSH1 0x0 PUSH8 0xFFFFFFFFFFFFFFFF DUP1 DUP5 GT ISZERO PUSH2 0x1427 JUMPI PUSH2 0x1427 PUSH2 0x1C96 JUMP JUMPDEST DUP4 PUSH1 0x5 SHL PUSH1 0x20 PUSH2 0x1438 DUP2 DUP4 ADD PUSH2 0x19F0 JUMP JUMPDEST DUP7 DUP2 MSTORE SWAP4 POP DUP1 DUP5 ADD DUP6 DUP4 DUP2 ADD DUP10 LT ISZERO PUSH2 0x1450 JUMPI PUSH1 0x0 DUP1 REVERT JUMPDEST PUSH1 0x0 SWAP4 POP DUP4 JUMPDEST DUP9 DUP2 LT ISZERO PUSH2 0x148B JUMPI DUP2 CALLDATALOAD DUP7 DUP2 GT ISZERO PUSH2 0x146C JUMPI DUP6 DUP7 REVERT JUMPDEST PUSH2 0x1478 DUP12 DUP3 DUP12 ADD PUSH2 0x1501 JUMP JUMPDEST DUP5 MSTORE POP SWAP2 DUP4 ADD SWAP2 SWAP1 DUP4 ADD SWAP1 PUSH1 0x1 ADD PUSH2 0x1456 JUMP JUMPDEST POP POP POP POP POP POP SWAP4 SWAP3 POP POP POP JUMP JUMPDEST PUSH1 0x0 DUP3 PUSH1 0x1F DUP4 ADD SLT PUSH2 0x14A9 JUMPI PUSH1 0x0 DUP1 REVERT JUMPDEST PUSH2 0x114A DUP4 DUP4 CALLDATALOAD PUSH1 0x20 DUP6 ADD PUSH2 0x140C JUMP JUMPDEST PUSH1 0x0 DUP1 DUP4 PUSH1 0x1F DUP5 ADD SLT PUSH2 0x14CA JUMPI PUSH1 0x0 DUP1 REVERT JUMPDEST POP DUP2 CALLDATALOAD PUSH8 0xFFFFFFFFFFFFFFFF DUP2 GT ISZERO PUSH2 0x14E2 JUMPI PUSH1 0x0 DUP1 REVERT JUMPDEST PUSH1 0x20 DUP4 ADD SWAP2 POP DUP4 PUSH1 0x20 DUP3 DUP6 ADD ADD GT ISZERO PUSH2 0x14FA JUMPI PUSH1 0x0 DUP1 REVERT JUMPDEST SWAP3 POP SWAP3 SWAP1 POP JUMP JUMPDEST PUSH1 0x0 DUP3 PUSH1 0x1F DUP4 ADD SLT PUSH2 0x1512 JUMPI PUSH1 0x0 DUP1 REVERT JUMPDEST DUP2 CALLDATALOAD PUSH2 0x1525 PUSH2 0x1520 DUP3 PUSH2 0x1A21 JUMP JUMPDEST PUSH2 0x19F0 JUMP JUMPDEST DUP2 DUP2 MSTORE DUP5 PUSH1 0x20 DUP4 DUP7 ADD ADD GT ISZERO PUSH2 0x153A JUMPI PUSH1 0x0 DUP1 REVERT JUMPDEST DUP2 PUSH1 0x20 DUP6 ADD PUSH1 0x20 DUP4 ADD CALLDATACOPY PUSH1 0x0 SWAP2 DUP2 ADD PUSH1 0x20 ADD SWAP2 SWAP1 SWAP2 MSTORE SWAP4 SWAP3 POP POP POP JUMP JUMPDEST DUP1 CALLDATALOAD PUSH1 0x1 DUP2 LT PUSH2 0x1566 JUMPI PUSH1 0x0 DUP1 REVERT JUMPDEST SWAP2 SWAP1 POP JUMP JUMPDEST DUP1 CALLDATALOAD PUSH1 0x2 DUP2 LT PUSH2 0x1566 JUMPI PUSH1 0x0 DUP1 REVERT JUMPDEST DUP1 CALLDATALOAD PUSH4 0xFFFFFFFF DUP2 AND DUP2 EQ PUSH2 0x1566 JUMPI PUSH1 0x0 DUP1 REVERT JUMPDEST DUP1 CALLDATALOAD PUSH8 0xFFFFFFFFFFFFFFFF DUP2 AND DUP2 EQ PUSH2 0x1566 JUMPI PUSH1 0x0 DUP1 REVERT JUMPDEST PUSH1 0x0 PUSH1 0x20 DUP3 DUP5 SUB SLT ISZERO PUSH2 0x15B8 JUMPI PUSH1 0x0 DUP1 REVERT JUMPDEST DUP2 MLOAD PUSH1 0x1 PUSH1 0x1 PUSH1 0xA0 SHL SUB DUP2 AND DUP2 EQ PUSH2 0x114A JUMPI PUSH1 0x0 DUP1 REVERT JUMPDEST PUSH1 0x0 PUSH1 0x20 DUP3 DUP5 SUB SLT ISZERO PUSH2 0x15E1 JUMPI PUSH1 0x0 DUP1 REVERT JUMPDEST POP MLOAD SWAP2 SWAP1 POP JUMP JUMPDEST PUSH1 0x0 DUP1 PUSH1 0x0 PUSH1 0x60 DUP5 DUP7 SUB SLT ISZERO PUSH2 0x15FD JUMPI PUSH1 0x0 DUP1 REVERT JUMPDEST DUP4 CALLDATALOAD SWAP3 POP PUSH1 0x20 DUP5 ADD CALLDATALOAD PUSH8 0xFFFFFFFFFFFFFFFF DUP1 DUP3 GT ISZERO PUSH2 0x161C JUMPI PUSH1 0x0 DUP1 REVERT JUMPDEST PUSH2 0x1628 DUP8 DUP4 DUP9 ADD PUSH2 0x1501 JUMP JUMPDEST SWAP4 POP PUSH1 0x40 DUP7 ADD CALLDATALOAD SWAP2 POP DUP1 DUP3 GT ISZERO PUSH2 0x163E JUMPI PUSH1 0x0 DUP1 REVERT JUMPDEST POP PUSH2 0x164B DUP7 DUP3 DUP8 ADD PUSH2 0x1501 JUMP JUMPDEST SWAP2 POP POP SWAP3 POP SWAP3 POP SWAP3 JUMP JUMPDEST PUSH1 0x0 PUSH1 0x20 DUP3 DUP5 SUB SLT ISZERO PUSH2 0x1667 JUMPI PUSH1 0x0 DUP1 REVERT JUMPDEST DUP2 MLOAD PUSH8 0xFFFFFFFFFFFFFFFF DUP2 GT ISZERO PUSH2 0x167E JUMPI PUSH1 0x0 DUP1 REVERT JUMPDEST DUP3 ADD PUSH1 0x1F DUP2 ADD DUP5 SGT PUSH2 0x168F JUMPI PUSH1 0x0 DUP1 REVERT JUMPDEST DUP1 MLOAD PUSH2 0x169D PUSH2 0x1520 DUP3 PUSH2 0x1A21 JUMP JUMPDEST DUP2 DUP2 MSTORE DUP6 PUSH1 0x20 DUP4 DUP6 ADD ADD GT ISZERO PUSH2 0x16B2 JUMPI PUSH1 0x0 DUP1 REVERT JUMPDEST PUSH2 0x784 DUP3 PUSH1 0x20 DUP4 ADD PUSH1 0x20 DUP7 ADD PUSH2 0x1BB6 JUMP JUMPDEST PUSH1 0x0 DUP1 PUSH1 0x0 DUP1 PUSH1 0x0 DUP1 PUSH1 0x0 DUP1 PUSH1 0xA0 DUP10 DUP12 SUB SLT ISZERO PUSH2 0x16DF JUMPI PUSH1 0x0 DUP1 REVERT JUMPDEST DUP9 CALLDATALOAD PUSH8 0xFFFFFFFFFFFFFFFF DUP1 DUP3 GT ISZERO PUSH2 0x16F7 JUMPI PUSH1 0x0 DUP1 REVERT JUMPDEST PUSH2 0x1703 DUP13 DUP4 DUP14 ADD PUSH2 0x14B8 JUMP JUMPDEST SWAP1 SWAP11 POP SWAP9 POP PUSH1 0x20 DUP12 ADD CALLDATALOAD SWAP2 POP DUP1 DUP3 GT ISZERO PUSH2 0x171C JUMPI PUSH1 0x0 DUP1 REVERT JUMPDEST PUSH2 0x1728 DUP13 DUP4 DUP14 ADD PUSH2 0x14B8 JUMP JUMPDEST SWAP1 SWAP9 POP SWAP7 POP PUSH1 0x40 DUP12 ADD CALLDATALOAD SWAP2 POP DUP1 DUP3 GT ISZERO PUSH2 0x1741 JUMPI PUSH1 0x0 DUP1 REVERT JUMPDEST DUP2 DUP12 ADD SWAP2 POP DUP12 PUSH1 0x1F DUP4 ADD SLT PUSH2 0x1755 JUMPI PUSH1 0x0 DUP1 REVERT JUMPDEST DUP2 CALLDATALOAD DUP2 DUP2 GT ISZERO PUSH2 0x1764 JUMPI PUSH1 0x0 DUP1 REVERT JUMPDEST DUP13 PUSH1 0x20 DUP3 PUSH1 0x5 SHL DUP6 ADD ADD GT ISZERO PUSH2 0x1779 JUMPI PUSH1 0x0 DUP1 REVERT JUMPDEST PUSH1 0x20 DUP4 ADD SWAP7 POP DUP1 SWAP6 POP POP POP POP PUSH2 0x1791 PUSH1 0x60 DUP11 ADD PUSH2 0x158E JUMP JUMPDEST SWAP2 POP PUSH2 0x179F PUSH1 0x80 DUP11 ADD PUSH2 0x157A JUMP JUMPDEST SWAP1 POP SWAP3 SWAP6 SWAP9 POP SWAP3 SWAP6 SWAP9 SWAP1 SWAP4 SWAP7 POP JUMP JUMPDEST PUSH1 0x0 DUP1 PUSH1 0x0 DUP1 PUSH1 0x80 DUP6 DUP8 SUB SLT ISZERO PUSH2 0x17C4 JUMPI PUSH1 0x0 DUP1 REVERT JUMPDEST DUP5 CALLDATALOAD PUSH8 0xFFFFFFFFFFFFFFFF DUP1 DUP3 GT ISZERO PUSH2 0x17DC JUMPI PUSH1 0x0 DUP1 REVERT JUMPDEST SWAP1 DUP7 ADD SWAP1 PUSH1 0xC0 DUP3 DUP10 SUB SLT ISZERO PUSH2 0x17F0 JUMPI PUSH1 0x0 DUP1 REVERT JUMPDEST PUSH2 0x17F8 PUSH2 0x19C7 JUMP JUMPDEST PUSH2 0x1801 DUP4 PUSH2 0x156B JUMP JUMPDEST DUP2 MSTORE PUSH2 0x180F PUSH1 0x20 DUP5 ADD PUSH2 0x156B JUMP JUMPDEST PUSH1 0x20 DUP3 ADD MSTORE PUSH2 0x1820 PUSH1 0x40 DUP5 ADD PUSH2 0x1557 JUMP JUMPDEST PUSH1 0x40 DUP3 ADD MSTORE PUSH1 0x60 DUP4 ADD CALLDATALOAD DUP3 DUP2 GT ISZERO PUSH2 0x1837 JUMPI PUSH1 0x0 DUP1 REVERT JUMPDEST PUSH2 0x1843 DUP11 DUP3 DUP7 ADD PUSH2 0x1501 JUMP JUMPDEST PUSH1 0x60 DUP4 ADD MSTORE POP PUSH1 0x80 DUP4 ADD CALLDATALOAD DUP3 DUP2 GT ISZERO PUSH2 0x185B JUMPI PUSH1 0x0 DUP1 REVERT JUMPDEST PUSH2 0x1867 DUP11 DUP3 DUP7 ADD PUSH2 0x1501 JUMP JUMPDEST PUSH1 0x80 DUP4 ADD MSTORE POP PUSH1 0xA0 DUP4 ADD CALLDATALOAD DUP3 DUP2 GT ISZERO PUSH2 0x187F JUMPI PUSH1 0x0 DUP1 REVERT JUMPDEST PUSH2 0x188B DUP11 DUP3 DUP7 ADD PUSH2 0x1498 JUMP JUMPDEST PUSH1 0xA0 DUP4 ADD MSTORE POP SWAP6 POP PUSH2 0x18A2 SWAP2 POP POP PUSH1 0x20 DUP7 ADD PUSH2 0x158E JUMP JUMPDEST SWAP3 POP PUSH2 0x18B0 PUSH1 0x40 DUP7 ADD PUSH2 0x157A JUMP JUMPDEST SWAP4 SWAP7 SWAP3 SWAP6 POP SWAP3 SWAP4 PUSH1 0x60 ADD CALLDATALOAD SWAP3 POP POP JUMP JUMPDEST PUSH1 0x0 PUSH1 0x20 DUP3 DUP5 SUB SLT ISZERO PUSH2 0x18D2 JUMPI PUSH1 0x0 DUP1 REVERT JUMPDEST DUP2 MLOAD PUSH12 0xFFFFFFFFFFFFFFFFFFFFFFFF DUP2 AND DUP2 EQ PUSH2 0x114A JUMPI PUSH1 0x0 DUP1 REVERT JUMPDEST PUSH1 0x0 DUP2 MLOAD DUP1 DUP5 MSTORE PUSH2 0x1906 DUP2 PUSH1 0x20 DUP7 ADD PUSH1 0x20 DUP7 ADD PUSH2 0x1BB6 JUMP JUMPDEST PUSH1 0x1F ADD PUSH1 0x1F NOT AND SWAP3 SWAP1 SWAP3 ADD PUSH1 0x20 ADD SWAP3 SWAP2 POP POP JUMP JUMPDEST PUSH1 0x20 DUP2 MSTORE PUSH1 0x0 PUSH2 0x114A PUSH1 0x20 DUP4 ADD DUP5 PUSH2 0x18EE JUMP JUMPDEST PUSH1 0x40 DUP2 MSTORE PUSH1 0x0 PUSH2 0x1940 PUSH1 0x40 DUP4 ADD DUP6 PUSH2 0x18EE JUMP JUMPDEST DUP3 DUP2 SUB PUSH1 0x20 DUP5 ADD MSTORE PUSH2 0x784 DUP2 DUP6 PUSH2 0x18EE JUMP JUMPDEST PUSH8 0xFFFFFFFFFFFFFFFF DUP5 AND DUP2 MSTORE PUSH1 0x60 PUSH1 0x20 DUP3 ADD MSTORE PUSH1 0x0 PUSH2 0x1975 PUSH1 0x60 DUP4 ADD DUP6 PUSH2 0x18EE JUMP JUMPDEST SWAP1 POP PUSH4 0xFFFFFFFF DUP4 AND PUSH1 0x40 DUP4 ADD MSTORE SWAP5 SWAP4 POP POP POP POP JUMP JUMPDEST PUSH8 0xFFFFFFFFFFFFFFFF DUP6 AND DUP2 MSTORE PUSH1 0x80 PUSH1 0x20 DUP3 ADD MSTORE PUSH1 0x0 PUSH2 0x19AE PUSH1 0x80 DUP4 ADD DUP7 PUSH2 0x18EE JUMP JUMPDEST PUSH4 0xFFFFFFFF SWAP5 SWAP1 SWAP5 AND PUSH1 0x40 DUP4 ADD MSTORE POP PUSH1 0x60 ADD MSTORE SWAP3 SWAP2 POP POP JUMP JUMPDEST PUSH1 0x40 MLOAD PUSH1 0xC0 DUP2 ADD PUSH8 0xFFFFFFFFFFFFFFFF DUP2 GT DUP3 DUP3 LT OR ISZERO PUSH2 0x19EA JUMPI PUSH2 0x19EA PUSH2 0x1C96 JUMP JUMPDEST PUSH1 0x40 MSTORE SWAP1 JUMP JUMPDEST PUSH1 0x40 MLOAD PUSH1 0x1F DUP3 ADD PUSH1 0x1F NOT AND DUP2 ADD PUSH8 0xFFFFFFFFFFFFFFFF DUP2 GT DUP3 DUP3 LT OR ISZERO PUSH2 0x1A19 JUMPI PUSH2 0x1A19 PUSH2 0x1C96 JUMP JUMPDEST PUSH1 0x40 MSTORE SWAP2 SWAP1 POP JUMP JUMPDEST PUSH1 0x0 PUSH8 0xFFFFFFFFFFFFFFFF DUP3 GT ISZERO PUSH2 0x1A3B JUMPI PUSH2 0x1A3B PUSH2 0x1C96 JUMP JUMPDEST POP PUSH1 0x1F ADD PUSH1 0x1F NOT AND PUSH1 0x20 ADD SWAP1 JUMP JUMPDEST PUSH1 0x0 DUP3 NOT DUP3 GT ISZERO PUSH2 0x1A5C JUMPI PUSH2 0x1A5C PUSH2 0x1C54 JUMP JUMPDEST POP ADD SWAP1 JUMP JUMPDEST PUSH1 0x1 DUP2 DUP2 JUMPDEST DUP1 DUP6 GT ISZERO PUSH2 0x1A9C JUMPI DUP2 PUSH1 0x0 NOT DIV DUP3 GT ISZERO PUSH2 0x1A82 JUMPI PUSH2 0x1A82 PUSH2 0x1C54 JUMP JUMPDEST DUP1 DUP6 AND ISZERO PUSH2 0x1A8F JUMPI SWAP2 DUP2 MUL SWAP2 JUMPDEST SWAP4 DUP5 SHR SWAP4 SWAP1 DUP1 MUL SWAP1 PUSH2 0x1A66 JUMP JUMPDEST POP SWAP3 POP SWAP3 SWAP1 POP JUMP JUMPDEST PUSH1 0x0 PUSH2 0x114A DUP4 DUP4 PUSH1 0x0 DUP3 PUSH2 0x1ABA JUMPI POP PUSH1 0x1 PUSH2 0xF61 JUMP JUMPDEST DUP2 PUSH2 0x1AC7 JUMPI POP PUSH1 0x0 PUSH2 0xF61 JUMP JUMPDEST DUP2 PUSH1 0x1 DUP2 EQ PUSH2 0x1ADD JUMPI PUSH1 0x2 DUP2 EQ PUSH2 0x1AE7 JUMPI PUSH2 0x1B03 JUMP JUMPDEST PUSH1 0x1 SWAP2 POP POP PUSH2 0xF61 JUMP JUMPDEST PUSH1 0xFF DUP5 GT ISZERO PUSH2 0x1AF8 JUMPI PUSH2 0x1AF8 PUSH2 0x1C54 JUMP JUMPDEST POP POP PUSH1 0x1 DUP3 SHL PUSH2 0xF61 JUMP JUMPDEST POP PUSH1 0x20 DUP4 LT PUSH2 0x133 DUP4 LT AND PUSH1 0x4E DUP5 LT PUSH1 0xB DUP5 LT AND OR ISZERO PUSH2 0x1B26 JUMPI POP DUP2 DUP2 EXP PUSH2 0xF61 JUMP JUMPDEST PUSH2 0x1B30 DUP4 DUP4 PUSH2 0x1A61 JUMP JUMPDEST DUP1 PUSH1 0x0 NOT DIV DUP3 GT ISZERO PUSH2 0x1B44 JUMPI PUSH2 0x1B44 PUSH2 0x1C54 JUMP JUMPDEST MUL SWAP4 SWAP3 POP POP POP JUMP JUMPDEST PUSH1 0x0 DUP2 PUSH1 0x0 NOT DIV DUP4 GT DUP3 ISZERO ISZERO AND ISZERO PUSH2 0x1B66 JUMPI PUSH2 0x1B66 PUSH2 0x1C54 JUMP JUMPDEST POP MUL SWAP1 JUMP JUMPDEST PUSH1 0x0 DUP3 DUP3 LT ISZERO PUSH2 0x1B7D JUMPI PUSH2 0x1B7D PUSH2 0x1C54 JUMP JUMPDEST POP SUB SWAP1 JUMP JUMPDEST PUSH1 0x0 PUSH2 0x114A CALLDATASIZE DUP5 DUP5 PUSH2 0x140C JUMP JUMPDEST DUP1 MLOAD PUSH1 0x20 DUP1 DUP4 ADD MLOAD SWAP2 SWAP1 DUP2 LT ISZERO PUSH2 0x1BB0 JUMPI PUSH1 0x0 NOT DUP2 PUSH1 0x20 SUB PUSH1 0x3 SHL SHL DUP3 AND SWAP2 POP JUMPDEST POP SWAP2 SWAP1 POP JUMP JUMPDEST PUSH1 0x0 JUMPDEST DUP4 DUP2 LT ISZERO PUSH2 0x1BD1 JUMPI DUP2 DUP2 ADD MLOAD DUP4 DUP3 ADD MSTORE PUSH1 0x20 ADD PUSH2 0x1BB9 JUMP JUMPDEST DUP4 DUP2 GT ISZERO PUSH2 0x3FF JUMPI POP POP PUSH1 0x0 SWAP2 ADD MSTORE JUMP JUMPDEST PUSH1 0x1 DUP2 DUP2 SHR SWAP1 DUP3 AND DUP1 PUSH2 0x1BF6 JUMPI PUSH1 0x7F DUP3 AND SWAP2 POP JUMPDEST PUSH1 0x20 DUP3 LT DUP2 EQ ISZERO PUSH2 0x1BB0 JUMPI PUSH4 0x4E487B71 PUSH1 0xE0 SHL PUSH1 0x0 MSTORE PUSH1 0x22 PUSH1 0x4 MSTORE PUSH1 0x24 PUSH1 0x0 REVERT JUMPDEST PUSH1 0x0 PUSH1 0x0 NOT DUP3 EQ ISZERO PUSH2 0x1C2B JUMPI PUSH2 0x1C2B PUSH2 0x1C54 JUMP JUMPDEST POP PUSH1 0x1 ADD SWAP1 JUMP JUMPDEST PUSH1 0x0 DUP3 PUSH2 0x1C4F JUMPI PUSH4 0x4E487B71 PUSH1 0xE0 SHL PUSH1 0x0 MSTORE PUSH1 0x12 PUSH1 0x4 MSTORE PUSH1 0x24 PUSH1 0x0 REVERT JUMPDEST POP MOD SWAP1 JUMP JUMPDEST PUSH4 0x4E487B71 PUSH1 0xE0 SHL PUSH1 0x0 MSTORE PUSH1 0x11 PUSH1 0x4 MSTORE PUSH1 0x24 PUSH1 0x0 REVERT JUMPDEST PUSH4 0x4E487B71 PUSH1 0xE0 SHL PUSH1 0x0 MSTORE PUSH1 0x21 PUSH1 0x4 MSTORE PUSH1 0x24 PUSH1 0x0 REVERT JUMPDEST PUSH4 0x4E487B71 PUSH1 0xE0 SHL PUSH1 0x0 MSTORE PUSH1 0x32 PUSH1 0x4 MSTORE PUSH1 0x24 PUSH1 0x0 REVERT JUMPDEST PUSH4 0x4E487B71 PUSH1 0xE0 SHL PUSH1 0x0 MSTORE PUSH1 0x41 PUSH1 0x4 MSTORE PUSH1 0x24 PUSH1 0x0 REVERT INVALID LOG2 PUSH5 0x6970667358 0x22 SLT KECCAK256 0xD STATICCALL 0x25 0xBA ORIGIN CREATE 0xDB PUSH20 0x8E8387C086C9D8132DCBA97C16474465163A9827 PUSH9 0xE4FBD564736F6C6343 STOP ADDMOD SMOD STOP CALLER "},"methodIdentifiers":{"COLD_DAYS_THRESHOLD()":"84836d91","DAY_IN_SECONDS()":"5fdc6281","client()":"109e94cf","coldTemp()":"456f3d0e","consecutiveColdDays()":"058f3c0b","contractActive()":"e289fcb6","currentTempDateChecked()":"9d000ecc","currentTemperature()":"cf990eb3","estimateCost((uint8,uint8,uint8,string,bytes,string[]),uint64,uint32,uint256)":"d4b39175","executeRequest(string,bytes,string[],uint64,uint32)":"27714589","getDONPublicKey()":"d328a91e","handleOracleFulfillment(bytes32,bytes,bytes)":"0ca76175","insurer()":"dbc837c5","latestError()":"fffeb84e","latestRequestId()":"1aa46f59","latestResponse()":"bef3a2f0","shouldPayClient()":"6c3ee301"}},"storageLayout":{"storage":[{"astId":1011,"contract":"contracts/ParametricInsurance.sol:ParametricInsurance","label":"s_oracle","offset":0,"slot":"0","type":"t_contract(FunctionsOracleInterface)1445"},{"astId":1015,"contract":"contracts/ParametricInsurance.sol:ParametricInsurance","label":"s_pendingRequests","offset":0,"slot":"1","type":"t_mapping(t_bytes32,t_address)"},{"astId":12,"contract":"contracts/ParametricInsurance.sol:ParametricInsurance","label":"latestRequestId","offset":0,"slot":"2","type":"t_bytes32"},{"astId":14,"contract":"contracts/ParametricInsurance.sol:ParametricInsurance","label":"latestResponse","offset":0,"slot":"3","type":"t_bytes_storage"},{"astId":16,"contract":"contracts/ParametricInsurance.sol:ParametricInsurance","label":"latestError","offset":0,"slot":"4","type":"t_bytes_storage"},{"astId":32,"contract":"contracts/ParametricInsurance.sol:ParametricInsurance","label":"insurer","offset":0,"slot":"5","type":"t_address"},{"astId":36,"contract":"contracts/ParametricInsurance.sol:ParametricInsurance","label":"contractActive","offset":20,"slot":"5","type":"t_bool"},{"astId":38,"contract":"contracts/ParametricInsurance.sol:ParametricInsurance","label":"shouldPayClient","offset":21,"slot":"5","type":"t_bool"},{"astId":41,"contract":"contracts/ParametricInsurance.sol:ParametricInsurance","label":"consecutiveColdDays","offset":0,"slot":"6","type":"t_uint256"},{"astId":44,"contract":"contracts/ParametricInsurance.sol:ParametricInsurance","label":"coldTemp","offset":0,"slot":"7","type":"t_uint256"},{"astId":46,"contract":"contracts/ParametricInsurance.sol:ParametricInsurance","label":"currentTemperature","offset":0,"slot":"8","type":"t_uint256"},{"astId":48,"contract":"contracts/ParametricInsurance.sol:ParametricInsurance","label":"currentTempDateChecked","offset":0,"slot":"9","type":"t_uint256"}],"types":{"t_address":{"encoding":"inplace","label":"address","numberOfBytes":"20"},"t_bool":{"encoding":"inplace","label":"bool","numberOfBytes":"1"},"t_bytes32":{"encoding":"inplace","label":"bytes32","numberOfBytes":"32"},"t_bytes_storage":{"encoding":"bytes","label":"bytes","numberOfBytes":"32"},"t_contract(FunctionsOracleInterface)1445":{"encoding":"inplace","label":"contract FunctionsOracleInterface","numberOfBytes":"20"},"t_mapping(t_bytes32,t_address)":{"encoding":"mapping","key":"t_bytes32","label":"mapping(bytes32 => address)","numberOfBytes":"32","value":"t_address"},"t_uint256":{"encoding":"inplace","label":"uint256","numberOfBytes":"32"}}}}}}